:020000040800F2
:10000000D80A0020010100088B1800088117000899
:100010008918000849070008AD1D0008000000000D
:10002000000000000000000000000000AF18000801
:100030004B07000800000000AD180008B1180008C8
:100040001B0100081B0100081B0100081B01000820
:100050001B0100081B0100081B0100081B01000810
:100060001B0100081B0100081B0100081B01000800
:100070001B0100081B0100081B0100081B010008F0
:100080001B0100081B0100081B0100081B010008E0
:100090001B0100081B0100081B0100081B010008D0
:1000A0001B0100081B0100081B0100081B010008C0
:1000B0001B0100084D1900081B0100081B01000866
:1000C0001B0100081B0100081B0100081B010008A0
:1000D0001B010008951D0008A11D00081B01000858
:1000E0001B0100081B0100081B010008DFF80CD0F1
:1000F00000F068F900480047FD210008D80A0020F8
:100100000648804706480047FEE7FEE7FEE7FEE7B1
:10011000FEE7FEE7FEE7FEE7FEE7FEE7051900085B
:10012000ED00000840EA01039B0703D009E008C97D
:10013000121F08C0042AFAD203E011F8013B00F8AC
:10014000013B521EF9D27047D2B201E000F8012BF8
:10015000491EFBD270470022F6E710B513460A4647
:1001600004461946FFF7F0FF204610BD30B505469E
:100170002A460B4612F8010B13F8014B08B1A042B6
:10018000F8D01CB1002802D06D1CF1E7284630BD24
:100190000FB400B58DB010A909900B9000914FF0ED
:1001A000FF300A9000200C90054806900548079003
:1001B0006A4609A80F9900F0D7F80DB05DF814FB56
:1001C00085030008A30300082DE9FF5F1D464FF0DB
:1001D000FF3BD5E9014691465F464FF00008A9690B
:1001E0007F1C01988847296A824688470028F6D1F3
:1001F000BAF1FF3F0CD024F4C064002E19DD600674
:1002000014D5BAF12B0F09D0BAF12D0F0ED103E09E
:10021000584604B0BDE8F09F44F48064A9697F1C8F
:1002200001988847761E8246002E02DDBAF1300F13
:1002300003D0B9F1000F26D032E0A969761E44F44C
:1002400000747F1C019888478246002E05DDBAF1B4
:10025000780F06D0BAF1580F03D0B9F1000F10D0C3
:100260001EE0B9F1000F02D0B9F1100F18D1A96941
:10027000761E24F400747F1C019888478246102063
:1002800002E0082000E00A20814609E008FB090896
:10029000A969761E44F400747F1C01988847824641
:1002A000002E05DD4946504600F04AF80028EDDAF8
:1002B000E96901988847A00502D46FF00100A8E71A
:1002C000E00725D1600613D5600502D5C8F100000E
:1002D00000E0404629680A1D2A600968220501D508
:1002E000087015E0220701D5088011E008600FE0D2
:1002F0002868011D29600068210502D580F800806A
:1003000006E0210702D5A0F8008001E0C0F80080D7
:1003100038467EE730B50B460146002020220124F6
:1003200009E021FA02F59D4205D303FA02F5491BC3
:1003300004FA02F52844151EA2F10102F1DC30BDD9
:100340003A2800D2303820F02002412A01D3A2F10D
:100350003700884201D34FF0FF30704702681144E4
:100360001378016018467047D1600449516104490F
:10037000116200211161114600F03CB85D030008D4
:10038000E9030008426842B1016811F8013B23B15A
:10039000521EC0E90012184670470121C160881E34
:1003A000704742685AB1C368016843B983688B4299
:1003B00005D0491E521CC0E90012002070474FF0C2
:1003C000FF307047064C074D06E0E06840F001033F
:1003D00094E8070098471034AC42F6D3FFF78AFE42
:1003E000F422000814230008C0B24FF4F05100F0CA
:1003F00097B900002DE9F34F8BB04FF0000801F1E1
:100400000C000C464FF0010B46460DF1080A019016
:100410006269012101989047051E2DD0252D2CD011
:10042000216A8847C0B16269012101989047216A19
:1004300088470028F7D1411E62690198904700E083
:10044000761CA1690B988847216A88470028F7D154
:10045000E1690B988847DBE7A1690B988847074655
:10046000A84201D1761CD3E7E1690B9888477F1C2D
:1004700002D1B8F1000F6FD046E1002762693D4616
:100480003946019890472A2804D1626901210198D0
:1004900090470125DFF88492626901210198904715
:1004A000A0F130010A290AD24F45E5DC07EB8701AC
:1004B00000EB4107303FDFD445F01005ECE7E906DB
:1004C00001D46FF000476C280AD04C2814D068285B
:1004D00015D06A280DD074281CD07A281AD01DE0B7
:1004E00062690121019890476C2802D045F004050B
:1004F00014E045F002050DE045F020050AE06269D0
:10050000012101989047682802D045F0080505E0D0
:1005100045F400656269012101989047C4E90157DB
:1005200065283DD019DC58287AD00CDC452837D016
:1005300004DC252826D0412831D131E046282FD0AF
:1005400047282CD12CE05B2877D0612828D063285D
:100550007CD0642823D15AE0D0E06F2848D008DC52
:1005600066281DD067281BD0692821D06E2816D197
:1005700027E0702845D0732868D0752847D07828A0
:100580000DD14DE0A1690B988847054625283FF419
:1005900069AFE1690B9888476D1C3FF46AAFB3E01F
:1005A00023466A466FF001000B99AFF300809EE08E
:1005B00045F040006060A80723464FF0000236D4A3
:1005C0003EE0E8077FF447AF2068011D2160006826
:1005D000290501D506701BE7290701D5068017E715
:1005E000A90703D5F117C0E9006111E706600FE71D
:1005F00045F040006060A80723464FF0080216D47B
:100600001EE040F60E0125EA0100606016E045F0AC
:1006100040006060A80723464FF00A0207D40FE0AD
:1006200045F040006060A80708D5234610226FF00F
:1006300001000B99AFF3008059E007E02346102238
:100640006FF001000B99FFF7BFFD50E04FF000097C
:100650004F464B46632802D05B2806D040E0E806B0
:1006600001D40120A06001273AE0626901210198CC
:1006700090475E2805D14FF001096269494601980B
:100680009047216939B900210A46534643F8212091
:10069000491C0829FADBB0B3216969B9C11700EB1D
:1006A000D16253110AEB830122F01F02821A01204A
:1006B0000B68904003430B606269012101989047E9
:1006C0005D28E8D1B9F1000F09D00020514651F85A
:1006D0002020D24341F82020401C0828F7DB02AB41
:1006E000224600976FF001000B99AFF300800028BD
:1006F0000CDA401C08D1BBF1000F05D04FF0FF30E1
:100700000DB0BDE8F08FFFE74046F9E7E90701D1FA
:1007100008F1010806444FF0000B79E6CCCCCC0C74
:100720007F2801D9002208E0064A02EB5002C007E8
:10073000127800D1120902F00F0201209040084007
:1007400070470000B4220008FEE77047704701229E
:1007500082F31088428B002383F31088C2B1B9B1B1
:100760008268AAB1038BD25C0A70012181F31088E0
:10077000018B491C89B20183C289914201D30021B6
:100780000183418B491E4183002080F3108870470C
:1007900001207047F0B50DF1140E9EE8F01080E8CE
:1007A0000E008481C581002101824182C1820183C2
:1007B0004183818200F11C0E01218EE8C01080F877
:1007C0002810F0BD10B590F821100024022903D0A4
:1007D0000421816301243DE001680A6822F00E02D1
:1007E0000A6001680A6822F001020A601A4A016878
:1007F000914201D1012121E0174A1432914201D1E5
:1008000010211BE0144A2832914201D1891515E0CC
:10081000114A3C32914201D189140FE00E4A503204
:10082000914202D14FF4803108E00B4A6432914288
:1008300002D14FF4801101E04FF08071064A083A6E
:100840005160012180F82110002180F82010416BB7
:1008500001B18847204610BD0800024070B504462B
:1008600000F0ECF80546601C02D00448007804440F
:1008700000F0E4F8401BA042FAD370BD080000204D
:100880002DE9F84FDFF890A100220AF1040B14467D
:1008900001274FF00F090BF1040E00BF0B6807FA98
:1008A00004F52B40AB4274D1DFF870C14E68A6EB63
:1008B0000C0866452BD00DDC032E34D005DC36B396
:1008C000012E19D0022E2FD11BE0112E16D0122E80
:1008D0002AD119E0B8F5881F19D006DCB8F5803F99
:1008E00015D0B8F5801F1FD111E0B8F5001F0ED04C
:1008F000B8F5041F18D10AE0CA6815E0CA68121DCD
:1009000012E0CA6808320FE0CA680C320CE08A684C
:100910002AB1012A4FF0080203D0456104E0042205
:1009200002E0056100E00022FF2B01D8064601E04D
:1009300000F104064FEA840501D9A5F12005D6F897
:1009400000C009FA05F82CEA080C02FA05F54CEA91
:10095000050CC6F800C04D68ED0057D5304DAE69A6
:1009600046F00106AE61AD6924F0030605F001050D
:1009700000952C4D06EB050CDCF80850A6074FEA55
:10098000167809FA08F6B543274EB04202D1002680
:1009900010E03BE0254EB04201D101260AE0244E92
:1009A000B04201D1022605E0224EB04201D1032619
:1009B00000E0042606FA08F62E43CCF808604D68DD
:1009C000DAF80060ED03554601D51E4300E09E4372
:1009D0002E604D68DBF80060AD035D4601D51E4317
:1009E00000E09E432E604D68DEF80060ED02754623
:1009F00001D51E4300E09E432E604D68AD020E4DB2
:100A00002E6801D51E4300E09E432E60641C102C0E
:100A1000FFF444AFBDE8F88F00040140000011105E
:100A2000001002400000014000080140000C01409D
:100A300000100140001401400C040140014880688E
:100A400070470000080000200248816802781144C5
:100A50008160704708000020074810B5016841F028
:100A600010010160032000F073F8002000F006F888
:100A700000F024F8002010BD0020024070B50D4D9C
:100A800004464FF47A712878B1FBF0F00A490968FE
:100A9000B1FBF0F000F00EFB48B9102C07D2002299
:100AA0002146501E00F034F800206C6070BD01201B
:100AB00070BD000008000020140000200C4808B59C
:100AC000816941F001018161816901F001010091B9
:100AD000C16941F08051C161C06900F0805000904F
:100AE0000448416821F0E06141F08061416008BD47
:100AF000001002400000014000F01F02012191405F
:100B00004009800000F1E020C0F8001170470000AB
:100B1000F0B40E4B1B680C46C3F30223C3F1070568
:100B2000042D00D90425191D072901D2002300E056
:100B3000DB1E012606FA05F1491E214099409E4020
:100B4000761E16403143F0BC00F0A0BE0CED00E074
:100B5000064900F0070208684FF6FF03184040EA14
:100B60000220034A10430860704700000CED00E0CB
:100B70000000FA05BFF34F8F05480168054A01F4EC
:100B8000E06111430160BFF34F8F00BFFDE700003C
:100B90000CED00E00400FA052DE9F047DFF8548180
:100BA00005460E46D8F8000000F00700B0420CD20F
:100BB000D8F8001021F007013143C8F80010D8F828
:100BC000000000F00700B0426FD128684A4C81074E
:100BD00012D5400703D5606840F4E0606060287873
:100BE000000703D5606840F4605060606068A968E1
:100BF00020F0F000084360602878C00744D068689F
:100C0000012816D02168022816D0890700294CDA5D
:100C1000616821F0030101436160FFF70FFF69681C
:100C2000074641F2883001290ED00229814618D0AA
:100C300026E021688903E9E78901E7E7FFF7FEFE7F
:100C4000C11B494501D918E081466068C0F38100A5
:100C50000128F3D118E000BFFFF7F0FEC11B4945A2
:100C60000BD86068C0F381000228F5D10CE000BF0A
:100C7000FFF7E4FEC11B494502D90320BDE8F08718
:100C8000606810F00C0FF3D1D8F80010404601F066
:100C90000701B1420BD9016821F00701314301601E
:100CA000006800F00700B04201D00120E6E7287894
:100CB000400705D56068E96820F4E060084360609B
:100CC0002878000706D56068296920F4605040EA5A
:100CD000C100606000F036F86168084AC1F3031192
:100CE000515CC840064908600020FFF7C7FE00209D
:100CF000C4E7000000200240001002409C220008CF
:100D0000140000200448054900684968044AC1F3FA
:100D10000221515CC84070471400002000100240BE
:100D2000AC2200080448054900684968044AC1F338
:100D3000C221515CC84070471400002000100240DE
:100D4000AC22000812A185B00FC98DE80F0014A0D5
:100D5000144A006804905168134801F00C03042BF6
:100D600010D0082B0ED1C1F38343C9031DF8030033
:100D70000AD5516804AAC1F34041515C0A4A504364
:100D8000B0FBF1F005B0704708494843FAE70000AE
:100D900002030405060708090A0B0C0D0E0F1010BC
:100DA000010200000010024000127A0000093D001C
:100DB0002DE9F84F04460078B94DC00748D068685F
:100DC000C0F38100012807D06868C0F381000228C1
:100DD00009D16868C00306D52868800338D56068E3
:100DE00000286FD034E06068B0F5803F0BD010B1C0
:100DF000B0F5A02F11D0286820F480302860286832
:100E000020F4802002E0286840F480302860606888
:100E100088B1FFF713FE064609E0286840F48020F9
:100E20002860F0E7FFF70AFE801B642875D8286861
:100E30008003F7D50CE0FFF701FE064605E000BF92
:100E4000FFF7FCFD801B6428F0D828688003F7D4E6
:100E50002078944E80074FF001094FF000083BD5F1
:100E6000686810F00C0F07D06868C0F38100022892
:100E700009D16868C00306D42868800714D52069A2
:100E800001281FD110E02069B0B1C6F80090FFF72B
:100E9000D5FD074605E000BFFFF7D0FDC01B0228C7
:100EA000C4D828688007F7D52868616920F0F80061
:100EB00040EAC10028600FE0C6F80080FFF7BEFDE1
:100EC000074606E0E9E000BFFFF7B8FDC01B0228B7
:100ED00023D828688007F7D4207800072CD57248DB
:100EE000A169D9B1C0F80090FFF7A8FD074604E05A
:100EF000FFF7A4FDC01B02280FD8686A8007F7D54A
:100F00006A484FF4FA510068B0FBF1F0009000BF5E
:100F10000098411E0091FAD20EE080E0C0F80080F7
:100F2000FFF78CFD074604E0FFF788FDC01B022891
:100F300075D8686A8007F7D42078400760D5E869DB
:100F40000027C00008D4E86940F08050E861E869F3
:100F5000012700F08050009055480168C90513D45E
:100F60000168834641F480710160FFF767FD8246A6
:100F700006E000BFFFF762FDA0EB0A0064284ED830
:100F8000DBF80000C005F5D5E06801280AD008B1FB
:100F9000052813D0286A20F001002862286A20F072
:100FA000040002E0286A40F001002862E06841F293
:100FB000883B98B1FFF742FD82460BE0286A40F07B
:100FC00004002862EEE700BFFFF738FDA0EB0A013E
:100FD00059455AD8286A8007F6D50CE0FFF72EFD50
:100FE000824605E0FFF72AFDA0EB0A0159454CD8DF
:100FF000286A8007F6D41FB1E86920F08050E861C4
:10100000E06988B36968C1F38101022945D00228EB
:10101000C6F8608004D0FFF711FD044638E034E0E4
:10102000FFF70CFD074604E0FFF708FDC01B022890
:101030002BD828688001F7D4206AB0F5803F05D10D
:101040006868A16820F4003008436860D4E90801AA
:101050000843696821F4741108436860C6F8609019
:10106000FFF7ECFC044606E015E000BFFFF7E6FCE6
:10107000001B022809D828688001F7D50BE000BFC3
:10108000FFF7DCFC001B022802D90320BDE8F88F23
:1010900028688001F4D40020F8E70120F6E700007A
:1010A000001002400000424280044242140000202E
:1010B0000070004010B5401EB0F1807F01D30120C8
:1010C00010BD4FF0E02460610F21601700F0DEFBDF
:1010D0000020A06107202061002010BD70477047EC
:1010E00030B590F83C20012A20D0012280F83C2025
:1010F000022380F83D3003685C6824F070045C6073
:1011000003685C680D682C435C6003689C6824F08D
:1011100080049C6003689C6849680C439C6080F86C
:101120003D20002180F83C10084630BD022030BD33
:1011300010B5040003D094F83D0010B107E0012081
:1011400010BD002084F83C00204600F00DF802207D
:1011500084F83D00211D206800F0FEFB012084F88A
:101160003D00002010BD000008B500680B49884212
:1011700012D10B48C16941F00201C161C06900226E
:1011800000F00200009011461D20FFF7C1FCBDE8F1
:1011900008401D20FFF7B0BC08BD0000000400405F
:1011A000001002400168CA6842F00102CA6000688B
:1011B000016841F00101016000207047704770B57F
:1011C0000446006801694FF00005C943890715D43A
:1011D000C168C943890711D4E91E01610120207744
:1011E000206880698007204602D0FFF7E7FF04E00F
:1011F00000F098F8204600F096F8257720680169FD
:10120000C943490717D4C168C943490713D46FF0CC
:1012100004010161022020772068806910F4407F7A
:10122000204602D0FFF7CAFF04E000F07BF820461A
:1012300000F079F8257720680169C943090716D4B9
:10124000C168C943090712D46FF008010161042085
:1012500020772068C0698007204602D0FFF7AEFFE4
:1012600004E000F05FF8204600F05DF82577206884
:101270000169C943C90617D4C168C943C90613D453
:101280006FF010010161082020772068C06910F418
:10129000407F204602D0FFF791FF04E000F042F8C3
:1012A000204600F040F8257720680169C943C90746
:1012B00008D1C168C943C90704D1891E016120460C
:1012C00000F032F820680169C943090609D4C168F1
:1012D000C943090605D46FF0800101612046FFF77C
:1012E000FDFE20680169C943490609D4C168C943A4
:1012F000490605D46FF040010161204600F05BF81B
:1013000020680169C94389060BD4C168C9438906AD
:1013100007D46FF0200101612046BDE87040FFF75F
:10132000DEBE70BD70477047104800B5016899B0C7
:10133000491C0160652901D1002101600C49A1F11E
:10134000640000F055FE0A486438406E00280ADD4B
:101350000749642254396846FEF7E4FE04486438BD
:101360000FC800F0EBFE19B000BD00000400002023
:101370000404002070B5044690F83C00012818D001
:10138000012584F83C50022084F83D00204600F0FE
:1013900023FB2068C16821F04001C1602068C1685A
:1013A00021F48041C16084F83D50002084F83C0065
:1013B00070BD022070BD70477047000070B50268B4
:1013C00004461068D168536910F00F0F50D003F035
:1013D000010501F4907635435DD0C20705D0CA05FA
:1013E00003D5E26B42F00102E263420705D5DA075A
:1013F00003D0E26B42F00202E263820705D5DA070E
:1014000003D0E26B42F00402E263020705D5DA077B
:1014100003D0E26B42F00802E263E26B002A33D0B1
:10142000800604D5880602D5204600F04CFB2068D3
:101430004069E16BC0F38010090700D428B320464F
:1014400000F033FB2068416949061AD5416921F053
:1014500040014161606BA0B11B494163606BFFF7C4
:10146000B1F9002810D0606B416BBDE870400847AF
:10147000830610D58B060ED52046BDE8704000F0DF
:1014800022BB2046FFF798FF70BD2046FFF794FF70
:101490000020E06370BD030606D50B0604D5204688
:1014A000BDE8704000F012BC4006F3D54806F1D507
:1014B000D168204621F04001D160202184F8391004
:1014C00000F05DF970BD00009B1A000870B50400C3
:1014D00004D094F83900002510B106E0012070BD59
:1014E00084F83850204600F023F8242084F839008E
:1014F0002068C16821F40051C160204600F02EFB35
:101500002068016921F4904101612068416921F05E
:101510002A0141612068C16841F40051C160E5635E
:10152000202084F8390084F83A00002070BD0000C3
:1015300070B586B0002400940194029403942E4E5A
:1015400003682E49022003222D4DB34226D18B6918
:1015500043F480438B618B6903F4804304938B696C
:1015600043F004038B618969039201F00401049143
:101570000102CDE9001069462846FFF781F92815D8
:10158000CDE90004694628460294FFF779F9002264
:1015900011462520FFF7BCFA252028E0194EB3425A
:1015A00027D1CB6943F40033CB61CB6903F400331B
:1015B00004938B6943F004038B618969039201F002
:1015C000040104910421CDE9001069462846FFF783
:1015D00057F90820CDE90004694628460294FFF730
:1015E0004FF9002211462620FFF792FA2620FFF736
:1015F00083FA06B070BD00000038014000100240C0
:10160000000801400044004090F83A30202B22D1DD
:10161000F9B1F2B190F83830012B1CD0816282858B
:10162000C2850021C163222280F83A2080F8381058
:101630000168CA6842F48072CA6001684A6942F06F
:1016400001024A610068C16841F02001C1600020C8
:1016500070470120704702207047000010B5044613
:10166000114884421FD112481049407800F036FDDD
:101670000F490122491C2046FFF7C6FF002812D05F
:101680002046FFF723FF10B10AA000F091FB0849A4
:101690000122491C2046FFF7B7FF012803D1BDE80E
:1016A0001040FFF767BA10BD540400203403002037
:1016B000000000206572726F7220736574204954B7
:1016C0000D0A00002DE9F843044690F839001F4642
:1016D00016460D46202850D1A5B19EB194F8380089
:1016E00001284AD0012084F838004FF00008C4F8DF
:1016F0003C80212084F83900FFF7A0F9A6848146B8
:10170000E68426E00120BDE8F883E08C401EE084FA
:10171000A0684B46B0F5805F4FF000024FF08001AB
:101720002046009703D000F002FBE8B90DE000F07E
:10173000FEFAC8B928882168C0F30800486020690B
:1017400008B16D1C05E0AD1C03E0216815F8010B24
:101750004860E08C0028D8D14B460022402120462A
:10176000009700F0E4FA08B10320CCE7202084F8C9
:10177000390084F838800020C5E70220C3E77047AD
:10178000FEE70000094808B5816941F02001816148
:10179000816901F020010091816941F004018161BA
:1017A000806900F00400009008BD000000100240B5
:1017B00010B588B014216846FEF7CDFC002415480A
:1017C000059413490694016040F2CF21C0E9011449
:1017D0004FF4FA61C0E903148461FFF7A9FC08B172
:1017E000FEF7B4FF0620CDE9000469460948FFF77B
:1017F000C1FD08B1FEF7AAFF059405A905480694A6
:10180000FFF76EFC002801D0FEF7A0FF08B010BD66
:1018100000040040140400200C4810B50A4901607F
:101820004FF4E1314160002181600C22C160C0E9C8
:1018300004128161C161FFF749FE002803D0BDE8B1
:101840001040FEF783BF10BD003801405404002053
:101850000C4810B50A4901604FF4E13141600021A4
:1018600081600C22C160C0E904128161C161FFF78F
:101870002DFE002803D0BDE81040FEF767BF10BD65
:101880000044004094040020FEE770470907090E59
:10189000002806DA00F00F0000F1E02080F8141DA7
:1018A000704700F1E02080F80014704770477047DF
:1018B000FFF7CAB830B58FB028216846FEF74BFC59
:1018C00014210AA8FEF747FC01210804CDE9001005
:1018D0000024029402250491CDE907504FF4E01052
:1018E00009906846FFF764FA0F20CDE90A056802FF
:1018F000CDE90C4002210AA80E94FFF74DF90FB074
:1019000030BD00000D48016841F0010101604168EF
:101910000B4A1140416001680A4A114001600168A8
:1019200021F480210160416821F4FE0141604FF4FF
:101930001F0181600449C003086070470010024025
:101940000000FFF8FFFFF6FE08ED00E00148FFF79A
:1019500036BC000014040020F0B50268164B174C8A
:10196000174D4FF08047984205D0B84203D0A042AF
:1019700001D0A84203D122F070064A68324398424F
:1019800005D0B84203D0A04201D0A84203D122F42E
:101990004074CA68224322F080044A6922430260EC
:1019A0008A68C2620A688262984201D10969016349
:1019B00001214161F0BD0000002C01400004004005
:1019C0000008004010B5846842EA032224F47F44F2
:1019D0000A432243826010BD30B403689A6822F043
:1019E00070044A68224322F007040A6822439A607E
:1019F0004A6812F00F0F1FD11211082A1CD2DFE81B
:101A000002F01B1B1B1B0B1D23040B69D1E90221D8
:101A1000006830BCFFF7D6BF0268136A146A24F06E
:101A20000104146202689469096924F0F00444EA2C
:101A3000011191610068036230BC70470A698968CE
:101A4000006830BC00F006B80A698968006830BCDC
:101A500000F011B810B5036A046A24F001040462AE
:101A6000846924F0F00444EA021423F00A020A43D1
:101A70008461026210BD10B5036A23F01003036293
:101A80008369046A23F4704343EA023224F0A0031A
:101A900043EA01118261016210BD10B5406A002164
:101AA000C185C184FFF788FC10BD0168CA6822F4B3
:101AB0009072CA6001684A6922F001024A612021DD
:101AC00080F83A10704710B590F83A10222901D0EA
:101AD000022010BD8168B1F5805F11D00169002935
:101AE00001681FD0496801F07F03816A4A1C826245
:101AF0000B70C18D491E0904090CC18518D02BE05B
:101B00000269816A002A0268526805D0D2B20A804E
:101B1000816A491C8162ECE7C2F308020A80816A8B
:101B2000891CF7E74A68816A4B1C83620A70E0E708
:101B30000168CA6822F02002CA600168CA6822F4FB
:101B40008072CA6001684A6922F001024A6120215C
:101B500080F83A10FFF782FD002010BD2DE9F0411A
:101B6000044600680169E26821F4405111430161B3
:101B70002169A0680843616908432168CA6841F285
:101B80000C639A430243CA6020684169A26921F448
:101B90004071114341614C492068642532268842D6
:101BA0003CD1FFF7BFF800EBC00101EB001061680A
:101BB0008900B0FBF1F7FFF7B5F800EBC00101EBCE
:101BC00000106168B0468900B0FBF1F0B0FBF5F0A1
:101BD0006FF01801484307EB800106EB0110B0FBE2
:101BE000F5F000F0F006FFF79DF800EBC00101EB07
:101BF000001061688900B0FBF1F0B0FBF5F006EB76
:101C00000016FFF78FF800EBC00101EB00106168D0
:101C10008900B0FBF1F7FFF785F83BE0FFF772F8BA
:101C200000EBC00101EB001061688900B0FBF1F727
:101C3000FFF768F800EBC00101EB00106168B046E7
:101C40008900B0FBF1F0B0FBF5F06FF018014843EC
:101C500007EB800106EB0110B0FBF5F000F0F00699
:101C6000FFF750F800EBC00101EB0010616889003C
:101C7000B0FBF1F0B0FBF5F006EB0016FFF742F811
:101C800000EBC00101EB001061688900B0FBF1F7C7
:101C9000FFF738F800EBC00101EB00106168890024
:101CA000B0FBF1F0B0FBF5F06FF01801484307EB23
:101CB000800108EB0110B0FBF5F0216800F00F0087
:101CC00030448860BDE8F0810038014090F8391058
:101CD000212901D0022070478168B1F5805F016A37
:101CE0000BD04A1C0262026809785160C18C491EFF
:101CF0000904090CC1840ED017E009880268C1F3F9
:101D00000801516001690029016A02D0491C016281
:101D1000ECE7891CFBE70168CA6822F08002CA6010
:101D20000068C16841F04001C160002070472DE9A2
:101D3000F041984617460E460446069D1DE0681C75
:101D40001BD02DB1FEF77AFEA0EB0800A84214D9F3
:101D50002068C16821F4D071C1602068416921F018
:101D600001014161202084F8390084F83A00002004
:101D700084F838000320BDE8F0812068006836EA66
:101D8000000004D00020B842D9D00020F3E70120A1
:101D9000F9E700000148FFF711BB000054040020E0
:101DA0000148FFF70BBB000094040020FEE7000091
:101DB0000FB4054B10B503A9044A029800F01CF8B3
:101DC00010BC5DF814FB00008D1F000818000020F7
:101DD00002E008C8121F08C1002AFAD170477047F4
:101DE000002001E001C1121F002AFBD170470A2028
:101DF000FEF734FDFBE700002DE9FF4F89B09B465D
:101E00000446002506E025280BD05A460B9990473A
:101E1000641C6D1C20780028F5D10DB02846BDE863
:101E2000F08F0027B8460122474900E0074314F825
:101E3000013F203B02FA03F00842F7D120782E2818
:101E400019D114F8010F47F004072A280ED06FF0BB
:101E50002F022078A0F1300109290CD808EB880165
:101E600002EB410100EB0108641CF2E70A98641CD4
:101E700050F8048B0A9020780028CED0642808D02F
:101E8000692806D075281ED05A460B9990476D1CBC
:101E900058E00A994FF00A0901C90A91002802DAAC
:101EA00040422D2102E0390504D52B218DF8201068
:101EB000012103E0F90704D02021F7E78A4608AEA4
:101EC0000DE00021FAE70A994FF00A0901C90A91C9
:101ED000F7E74946FEF71EFA303106F8011D0028E3
:101EE000F7D1ADEB060000F12009780701D44FF0DF
:101EF0000108C84502DDA8EB090000E0002080468B
:101F0000002706E008A85A46C05D0B9990476D1C53
:101F10007F1C5745F6DB04E030205A460B9990476A
:101F20006D1CB8F10001A8F10108F5DC05E016F818
:101F3000010B5A460B9990476D1CB9F10001A9F1AC
:101F40000109F4DC641C65E70928010010B5044CA4
:101F5000206800F025F80020E060A060606010BDFF
:101F60008C03002070B5084C0546E06808B1FFF707
:101F7000EDFF2846E56000F05BF920600020A060DE
:101F80006060206170BD00008C03002013B5FF234A
:101F9000012269460148FFF795FB1CBD540400204F
:101FA00010B5002821D0114B0022001F196803E052
:101FB000814203D80A4649680029F9D152B1136811
:101FC000841A9C4204D1006818441060104602E054
:101FD000506000E0186039B102680B1A934203D1D7
:101FE0000B681A4402604968416010BD1C00002063
:101FF00038B505460C460020206069460648FEF7C5
:10200000A6FB08B1012038BD21689DF80000685486
:102010002068401CF0E700003403002010B586B0B3
:102020000024C820CDE90104194B009003F1C80237
:1020300003941849049402F51270FEF7ABFB0122D9
:1020400015491448FFF7E0FA10B114A0FFF7B0FEED
:102050008020CDE90104184B400003F58072009008
:1020600003941649049402F1AC00FEF793FB0A496D
:102070000122491E1148FFF7C7FA002805D006B013
:102080000FA0BDE81040FFF793BE06B010BD0000E2
:1020900024000020540400200100002068756172B3
:1020A000743120696E6974206661736C65202C72CE
:1020B000657365740D0A0000B401002094040020CB
:1020C00068756172743220696E6974206661736C20
:1020D00065202C72657365740D0A00008A68002AF9
:1020E00010D0CB8AD054C88A401C82B2CA82C88918
:1020F000824201D30022CA824A8B824203D2488B99
:10210000401C48837047C88A08837047F0B50A4A64
:1021100000231668D56809E09468C75C3755641CCD
:1021200094FBF5F705FB17445B1C94608B42F3DBD3
:10213000106908441061F0BD8C0300200FB410B585
:102140001BA102A8FEF712F8002478B11DAA1BA15A
:1021500002A81C94FEF71CF81CA01D99FFF728FE8E
:102160001D98FFF7FFFE10BC5DF814FB1BA102A831
:10217000FDF7FCFF48B11EAA19A102A8FEF708F856
:1021800019A01E99FFF714FEEDE71AA102A8FDF7AA
:10219000EDFF20B11C941D94FFF7D8FEE3E7DDE9C5
:1021A0001B1008441C9002A8FFF7B0FFDBE70000FB
:1021B000726576436F756E74000000007265764339
:1021C0006F756E743A25643B00000000726576639B
:1021D0006F756E74203D2025640D0A0061696D00E5
:1021E00061696D3A25643B0061696D203D2025647D
:1021F0000D0A000073746F7000000000FEF72CFCE5
:10220000FFF758FBFFF7BEFAFFF7D2FAFFF704FB20
:10221000FFF71EFBFFF702FF0448FEF7C3FFFFF7BF
:10222000E6FD6420FEF71AFBFBE700001404002023
:10223000F0B50B30154D20F007010024144A0FE0D3
:1022400003688B420BD38B4205D95E1A431847684B
:10225000C3E9006700E04368136002C004E0021DA8
:1022600010680028ECD12046002802D1286808B167
:102270000020F0BD064A07481060074A121A22F0F3
:102280000702C0E9002401202860D7E720000020D1
:102290001C000020DC040020D80600200000000004
:1022A0000000000001020304060708090000000006
:1022B00001020304DDDDDDDDDCBBBBDDDDDDDDDDFD
:1022C000DDDDDDDD9888888888888888777777776E
:1022D000778888888555555666666666666666663A
:1022E00066688888833333322222222222222222E5
:1022F0002228888D142300080000002024000000FC
:10230000D01D00083823000824000020B40A000073
:10231000E01D0008000000000000000001000000B7
:10232000100000000000000000A24A0400000000AD
:082330000000000000000000A5
:04000005080000ED02
:00000001FF
