:020000040800F2
:10000000D0190020010100088F1900088518000888
:100010008D19000805080008B11E00080000000046
:10002000000000000000000000000000B3190008FC
:100030000708000800000000B1190008B519000801
:100040001B0100081B0100081B0100081B01000820
:100050001B0100081B0100081B0100081B01000810
:100060001B0100081B0100081B0100081B01000800
:100070001B0100081B0100081B0100081B010008F0
:100080001B0100081B0100081B0100081B010008E0
:100090001B0100081B0100081B0100081B010008D0
:1000A0001B0100081B0100081B0100081B010008C0
:1000B0001B010008511A00081B0100081B01000861
:1000C0001B0100081B0100081B0100081B010008A0
:1000D0001B010008991E0008A51E00081B0100084E
:1000E0001B0100081B0100081B010008DFF80CD0F1
:1000F00000F0C6F900480047812A0008D019002006
:100100000648804706480047FEE7FEE7FEE7FEE7B1
:10011000FEE7FEE7FEE7FEE7FEE7FEE7091A000856
:10012000ED000008D2B201E000F8012B491EFBD21D
:1001300070470022F6E710B513460A4604461946F2
:10014000FFF7F0FF204610BD30B505462A460B46A6
:1001500012F8010B13F8014B08B1A042F8D01CB102
:10016000002802D06D1CF1E7284630BD0FB400B561
:100170008DB010A909900B9000914FF0FF300A90BC
:1001800000200C9005480690054807906A4609A88B
:100190000F9900F047F90DB05DF814FB4104000819
:1001A0005F0400082DE9FF5F1D464FF0FF3BD5E9D6
:1001B000014691465F464FF00008A9697F1C0198EF
:1001C0008847296A824688470028F6D1BAF1FF3F5E
:1001D0000CD024F4C064002E19DD600614D5BAF1E9
:1001E0002B0F09D0BAF12D0F0ED103E0584604B001
:1001F000BDE8F09F44F48064A9697F1C019888479A
:10020000761E8246002E02DDBAF1300F03D0B9F11E
:10021000000F26D032E0A969761E44F400747F1CDA
:10022000019888478246002E05DDBAF1780F06D086
:10023000BAF1580F03D0B9F1000F10D01EE0B9F198
:10024000000F02D0B9F1100F18D1A969761E24F45D
:1002500000747F1C019888478246102002E0082025
:1002600000E00A20814609E008FB0908A969761E1A
:1002700044F400747F1C019888478246002E05DDF7
:100280004946504600F0BAF80028EDDAE9690198CD
:100290008847A00502D46FF00100A8E7E00725D148
:1002A000600613D5600502D5C8F1000000E04046A5
:1002B00029680A1D2A600968220501D5087015E021
:1002C000220701D5088011E008600FE02868011DB1
:1002D00029600068210502D580F8008006E021072A
:1002E00002D5A0F8008001E0C0F8008038467EE723
:1002F0002DE9FF5FD2E901A74FF000089169994607
:100300001446DDF838B0464601988847054659EA54
:100310000B0005D009E0A169761C019888470546C5
:10032000216A284688470028F5D1681C03D05FEA77
:10033000CA7005D015E04FF0FF3004B0BDE8F09F63
:100340002068011D2160D0F800800AE05FEACA70D1
:1003500001D108F8015BA169761C7F1E01988847CE
:100360000546002F1ADD681C18D0B9F1000F0DD01A
:10037000E81705EBD060421120F01F0059F8221059
:100380002A1A012090400142E0D107E0BBF1000FA2
:10039000DCD1216A284688470028D7D0E169019836
:1003A0008847BBF1000F07D1002E05DD5FEACA7058
:1003B00002D1002188F80010A068B84203DDBBF12B
:1003C000000F03D017B16FF00100B6E73046B4E775
:1003D00030B50B46014600202022012409E021FA15
:1003E00002F59D4205D303FA02F5491B04FA02F512
:1003F0002844151EA2F10102F1DC30BD3A2800D2DA
:10040000303820F02002412A01D3A2F1370088427F
:1004100001D34FF0FF307047026811441378016038
:1004200018467047D16004495161044911620021A6
:100430001161114600F03CB819040008A504000839
:10044000426842B1016811F8013B23B1521EC0E974
:100450000012184670470121C160881E704742682B
:100460005AB1C368016843B983688B4205D0491EFD
:10047000521CC0E90012002070474FF0FF30704757
:10048000064C074D06E0E06840F0010394E80700E1
:1004900098471034AC42F6D3FFF72CFE1C2B000813
:1004A0003C2B0008C0B24FF4F05100F097B90000A7
:1004B0002DE9F34F8BB04FF0000801F10C000C4612
:1004C0004FF0010B46460DF1080A019062690121C7
:1004D00001989047051E2DD0252D2CD0216A8847E4
:1004E000C0B16269012101989047216A88470028BC
:1004F000F7D1411E62690198904700E0761CA1691E
:100500000B988847216A88470028F7D1E1690B9842
:100510008847DBE7A1690B9888470746A84201D1C5
:10052000761CD3E7E1690B9888477F1C02D1B8F1AC
:10053000000F6FD046E1002762693D4639460198B9
:1005400090472A2804D1626901210198904701252A
:10055000DFF884926269012101989047A0F130018F
:100560000A290AD24F45E5DC07EB870100EB41077A
:10057000303FDFD445F01005ECE7E90601D46FF019
:1005800000476C280AD04C2814D0682815D06A2857
:100590000DD074281CD07A281AD01DE06269012180
:1005A000019890476C2802D045F0040514E045F00E
:1005B00002050DE045F020050AE06269012101987D
:1005C0009047682802D045F0080505E045F400652D
:1005D0006269012101989047C4E9015765283DD01F
:1005E00019DC58287AD00CDC452837D004DC2528C3
:1005F00026D0412831D131E046282FD047282CD1B0
:100600002CE05B2877D0612828D063287CD0642830
:1006100023D15AE0D0E06F2848D008DC66281DD0EE
:1006200067281BD0692821D06E2816D127E07028B2
:1006300045D0732868D0752847D078280DD14DE073
:10064000A1690B988847054625283FF469AFE16901
:100650000B9888476D1C3FF46AAFB3E023466A46A7
:100660006FF001000B99AFF300809EE045F0400071
:100670006060A80723464FF0000236D43EE0E8074A
:100680007FF447AF2068011D21600068290501D56E
:1006900006701BE7290701D5068017E7A90703D5D0
:1006A000F117C0E9006111E706600FE745F040006F
:1006B0006060A80723464FF0080216D41EE040F6FB
:1006C0000E0125EA0100606016E045F04000606020
:1006D000A80723464FF00A0207D40FE045F0400078
:1006E0006060A80708D5234610226FF001000B991F
:1006F000AFF3008059E007E0234610226FF00100BD
:100700000B99FFF74FFD50E04FF000094F464B4665
:10071000632802D05B2806D040E0E80601D401201F
:10072000A06001273AE062690121019890475E28A4
:1007300005D14FF001096269494601989047216946
:1007400039B900210A46534643F82120491C08299B
:10075000FADBB0B3216969B9C11700EBD16253115B
:100760000AEB830122F01F02821A01200B689040DD
:1007700003430B6062690121019890475D28E8D12D
:10078000B9F1000F09D00020514651F82020D24382
:1007900041F82020401C0828F7DB02AB22460097D6
:1007A0006FF001000B99FFF7A3FD00280CDA401C45
:1007B00008D1BBF1000F05D04FF0FF300DB0BDE800
:1007C000F08FFFE74046F9E7E90701D108F101089A
:1007D00006444FF0000B79E6CCCCCC0C7F2801D935
:1007E000002208E0064A02EB5002C007127800D14E
:1007F000120902F00F0201209040084070470000EB
:10080000DC2A0008FEE770477047012282F3108857
:10081000428B002383F31088C2B1B9B18268AAB1B8
:10082000038BD25C0A70012181F31088018B491C73
:1008300089B20183C289914201D300210183418B96
:10084000491E4183002080F31088704701207047C3
:10085000F0B50DF1140E9EE8F01080E80E008481D2
:10086000C581002101824182C1820183418381824D
:1008700000F11C0E01218EE8C01080F82810F0BD98
:1008800010B590F821100024022903D004218163BF
:1008900001243DE001680A6822F00E020A60016846
:1008A0000A6822F001020A601A4A0168914201D1E5
:1008B000012121E0174A1432914201D110211BE09D
:1008C000144A2832914201D1891515E0114A3C326F
:1008D000914201D189140FE00E4A5032914202D167
:1008E0004FF4803108E00B4A6432914202D14FF458
:1008F000801101E04FF08071064A083A51600121F1
:1009000080F82110002180F82010416B01B1884748
:10091000204610BD0800024070B5044600F0ECF817
:100920000546601C02D004480078044400F0E4F856
:10093000401BA042FAD370BD140000202DE9F84FEF
:10094000DFF890A100220AF1040B144601274FF0B2
:100950000F090BF1040E00BF0B6807FA04F52B40DA
:10096000AB4274D1DFF870C14E68A6EB0C08664547
:100970002BD00DDC032E34D005DC36B3012E19D07C
:10098000022E2FD11BE0112E16D0122E2AD119E0E3
:10099000B8F5881F19D006DCB8F5803F15D0B8F53A
:1009A000801F1FD111E0B8F5001F0ED0B8F5041F4D
:1009B00018D10AE0CA6815E0CA68121D12E0CA68B8
:1009C00008320FE0CA680C320CE08A682AB1012AAA
:1009D0004FF0080203D0456104E0042202E0056103
:1009E00000E00022FF2B01D8064601E000F10406DA
:1009F0004FEA840501D9A5F12005D6F800C009FA0F
:100A000005F82CEA080C02FA05F54CEA050CC6F8C4
:100A100000C04D68ED0057D5304DAE6946F0010677
:100A2000AE61AD6924F0030605F0010500952C4D7B
:100A300006EB050CDCF80850A6074FEA167809FA11
:100A400008F6B543274EB04202D1002610E03BE045
:100A5000254EB04201D101260AE0244EB04201D118
:100A6000022605E0224EB04201D1032600E0042612
:100A700006FA08F62E43CCF808604D68DAF80060F4
:100A8000ED03554601D51E4300E09E432E604D68A0
:100A9000DBF80060AD035D4601D51E4300E09E43D8
:100AA0002E604D68DEF80060ED02754601D51E43EC
:100AB00000E09E432E604D68AD020E4D2E6801D5BC
:100AC0001E4300E09E432E60641C102CFFF444AFD4
:100AD000BDE8F88F00040140000011100010024032
:100AE0000000014000080140000C014000100140DE
:100AF000001401400C040140014880687047000068
:100B00001400002002488168027811448160704717
:100B100014000020074810B5016841F01001016081
:100B2000032000F073F8002000F006F800F024F82D
:100B3000002010BD0020024070B50D4D04464FF45A
:100B40007A712878B1FBF0F00A490968B1FBF0F03E
:100B500000F00EFB48B9102C07D200222146501E8F
:100B600000F034F800206C6070BD012070BD000002
:100B700014000020200000200C4808B5816941F0D5
:100B800001018161816901F001010091C16941F0B8
:100B90008051C161C06900F08050009004484168F4
:100BA00021F0E06141F08061416008BD0010024029
:100BB0000000014000F01F02012191404009800027
:100BC00000F1E020C0F8001170470000F0B40E4BB7
:100BD0001B680C46C3F30223C3F10705042D00D99B
:100BE0000425191D072901D2002300E0DB1E012680
:100BF00006FA05F1491E214099409E40761E164096
:100C00003143F0BC00F0C4BE0CED00E0064900F03A
:100C1000070208684FF6FF03184040EA0220034A23
:100C200010430860704700000CED00E00000FA057A
:100C3000BFF34F8F05480168054A01F4E061114395
:100C40000160BFF34F8F00BFFDE700000CED00E037
:100C50000400FA052DE9F047DFF8548105460E46F9
:100C6000D8F8000000F00700B0420CD2D8F800100D
:100C700021F007013143C8F80010D8F8000000F057
:100C80000700B0426FD128684A4C810712D540074F
:100C900003D5606840F4E06060602878000703D501
:100CA000606840F4605060606068A96820F0F000FF
:100CB000084360602878C00744D06868012816D0CF
:100CC0002168022816D0890700294CDA616821F0D2
:100CD000030101436160FFF70FFF6968074641F2B6
:100CE000883001290ED00229814618D026E02168DB
:100CF0008903E9E78901E7E7FFF7FEFEC11B4945E4
:100D000001D918E081466068C0F381000128F3D161
:100D100018E000BFFFF7F0FEC11B49450BD8606823
:100D2000C0F381000228F5D10CE000BFFFF7E4FE1C
:100D3000C11B494502D90320BDE8F087606810F067
:100D40000C0FF3D1D8F80010404601F00701B14272
:100D50000BD9016821F0070131430160006800F000
:100D60000700B04201D00120E6E72878400705D50A
:100D70006068E96820F4E060084360602878000754
:100D800006D56068296920F4605040EAC1006060BF
:100D900000F036F86168084AC1F30311515CC8409D
:100DA000064908600020FFF7C7FE0020C4E70000E6
:100DB0000020024000100240C42A00082000002049
:100DC0000448054900684968044AC1F30221515C9E
:100DD000C84070472000002000100240D42A0008BC
:100DE0000448054900684968044AC1F3C221515CBE
:100DF000C84070472000002000100240D42A00089C
:100E000012A185B00FC98DE80F0014A0144A006824
:100E100004905168134801F00C03042B10D0082BE8
:100E20000ED1C1F38343C9031DF803000AD55168ED
:100E300004AAC1F34041515C0A4A5043B0FBF1F0AF
:100E400005B0704708494843FAE70000020304056B
:100E5000060708090A0B0C0D0E0F10100102000006
:100E60000010024000127A0000093D002DE9F84F01
:100E700004460078B94DC00748D06868C0F38100C7
:100E8000012807D06868C0F38100022809D168688A
:100E9000C00306D52868800338D5606800286FD065
:100EA00034E06068B0F5803F0BD010B1B0F5A02FF2
:100EB00011D0286820F480302860286820F4802031
:100EC00002E0286840F480302860606888B1FFF74D
:100ED00013FE064609E0286840F480202860F0E709
:100EE000FFF70AFE801B642875D828688003F7D5B1
:100EF0000CE0FFF701FE064605E000BFFFF7FCFD32
:100F0000801B6428F0D828688003F7D42078944E9A
:100F100080074FF001094FF000083BD5686810F0DA
:100F20000C0F07D06868C0F38100022809D16868F7
:100F3000C00306D42868800714D5206901281FD172
:100F400010E02069B0B1C6F80090FFF7D5FD074664
:100F500005E000BFFFF7D0FDC01B0228C4D82868F9
:100F60008007F7D52868616920F0F80040EAC100E1
:100F700028600FE0C6F80080FFF7BEFD074606E0D8
:100F8000E9E000BFFFF7B8FDC01B022823D828689E
:100F90008007F7D4207800072CD57248A169D9B111
:100FA000C0F80090FFF7A8FD074604E0FFF7A4FD96
:100FB000C01B02280FD8686A8007F7D56A484FF42B
:100FC000FA510068B0FBF1F0009000BF0098411E9C
:100FD0000091FAD20EE080E0C0F80080FFF78CFDAF
:100FE000074604E0FFF788FDC01B022875D8686A31
:100FF0008007F7D42078400760D5E8690027C00053
:1010000008D4E86940F08050E861E869012700F001
:101010008050009055480168C90513D40168834683
:1010200041F480710160FFF767FD824606E000BF72
:10103000FFF762FDA0EB0A0064284ED8DBF8000041
:10104000C005F5D5E06801280AD008B1052813D0FD
:10105000286A20F001002862286A20F0040002E0DB
:10106000286A40F001002862E06841F2883B98B1AC
:10107000FFF742FD82460BE0286A40F00400286238
:10108000EEE700BFFFF738FDA0EB0A0159455AD83B
:10109000286A8007F6D50CE0FFF72EFD824605E0B2
:1010A000FFF72AFDA0EB0A0159454CD8286A8007B2
:1010B000F6D41FB1E86920F08050E861E06988B398
:1010C0006968C1F38101022945D00228C6F8608011
:1010D00004D0FFF711FD044638E034E0FFF70CFDC3
:1010E000074604E0FFF708FDC01B02282BD828683C
:1010F0008001F7D4206AB0F5803F05D16868A16807
:1011000020F4003008436860D4E9080108436968A6
:1011100021F4741108436860C6F86090FFF7ECFC96
:10112000044606E015E000BFFFF7E6FC001B0228BE
:1011300009D828688001F7D50BE000BFFFF7DCFC79
:10114000001B022802D90320BDE8F88F286880011F
:10115000F4D40020F8E70120F6E700000010024078
:101160000000424280044242200000200070004003
:1011700010B5401EB0F1807F01D3012010BD4FF0AB
:10118000E02460610F21601700F002FC0020A061E4
:1011900007202061002010BD7047704730B590F8DF
:1011A0003C20012A20D0012280F83C20022380F834
:1011B0003D3003685C6824F070045C6003685C6820
:1011C0000D682C435C6003689C6824F080049C607C
:1011D00003689C6849680C439C6080F83D200021AE
:1011E00080F83C10084630BD022030BD10B5040028
:1011F00003D094F83D0010B107E0012010BD00209D
:1012000084F83C00204600F00DF8022084F83D00F0
:10121000211D206800F022FC012084F83D00002000
:1012200010BD000008B500680B49884212D10B4878
:10123000C16941F00201C161C069002200F00200F1
:10124000009011461D20FFF7C1FCBDE808401D209D
:10125000FFF7B0BC08BD00000004004000100240D1
:101260000168CA6842F00102CA600068016841F082
:101270000101016000207047704770B504460068A6
:1012800001694FF00005C943890715D4C168C943F6
:10129000890711D4E91E0161012020772068806947
:1012A0008007204602D0FFF7E7FF04E000F098F83F
:1012B000204600F096F8257720680169C943490760
:1012C00017D4C168C943490713D46FF00401016101
:1012D000022020772068806910F4407F204602D0E9
:1012E000FFF7CAFF04E000F07BF8204600F079F831
:1012F000257720680169C943090716D4C168C94325
:10130000090712D46FF008010161042020772068DA
:10131000C0698007204602D0FFF7AEFF04E000F06E
:101320005FF8204600F05DF8257720680169C94321
:10133000C90617D4C168C943C90613D46FF0100198
:101340000161082020772068C06910F4407F2046A2
:1013500002D0FFF791FF04E000F042F8204600F0D1
:1013600040F8257720680169C943C90708D1C168D9
:10137000C943C90704D1891E0161204600F032F833
:1013800020680169C943090609D4C168C94309062F
:1013900005D46FF0800101612046FFF7FDFE206853
:1013A0000169C943490609D4C168C943490605D43E
:1013B0006FF040010161204600F05FF8206801698C
:1013C000C94389060BD4C168C943890607D46FF0A5
:1013D000200101612046BDE87040FFF7DEBE70BD10
:1013E00070477047114810B54168491C4160652934
:1013F00001D1002141600E49A1F1640001F034F8EF
:101400000B486438406E002801DD01F009FA0949F3
:10141000A1F1640001F012F806486438406E00281B
:1014200003DDBDE8104001F0CBB810BD0000002086
:10143000040C0020C414002070B5044690F83C0051
:10144000012818D0012584F83C50022084F83D0082
:10145000204600F043FB2068C16821F04001C160D4
:101460002068C16821F48041C16084F83D500020AB
:1014700084F83C0070BD022070BD704770470000CA
:1014800070B5026804461068D168536910F00F0FF8
:1014900050D003F0010501F4907635435DD0C207CA
:1014A00005D0CA0503D5E26B42F00102E2634207B0
:1014B00005D5DA0703D0E26B42F00202E26382074D
:1014C00005D5DA0703D0E26B42F00402E2630207BB
:1014D00005D5DA0703D0E26B42F00802E263E26B63
:1014E000002A33D0800604D5880602D5204600F0B5
:1014F0006CFB20684069E16BC0F38010090700D4E1
:1015000028B3204600F053FB2068416949061AD5EC
:10151000416921F040014161606BA0B11B49416309
:10152000606BFFF7ADF9002810D0606B416BBDE830
:1015300070400847830610D58B060ED52046BDE8BF
:10154000704000F042BB2046FFF798FF70BD204678
:10155000FFF794FF0020E06370BD030606D50B067D
:1015600004D52046BDE8704000F032BC4006F3D5FB
:101570004806F1D5D168204621F04001D1602021F4
:1015800084F8391000F07DF970BD00009F1B000841
:1015900070B5040004D094F83900002510B106E0BD
:1015A000012070BD84F83850204600F023F8242034
:1015B00084F839002068C16821F40051C1602046D8
:1015C00000F04EFB2068016921F490410161206820
:1015D000416921F02A0141612068C16841F400514C
:1015E000C160E563202084F8390084F83A000020C7
:1015F00070BD000070B586B0002400940194029480
:1016000003942E4E03682E49022003222D4DB3422F
:1016100026D18B6943F480438B618B6903F480434B
:1016200004938B6943F004038B618969039201F091
:10163000040104910102CDE9001069462846FFF734
:101640007DF92815CDE90004694628460294FFF784
:1016500075F9002211462520FFF7B8FA252028E069
:10166000194EB34227D1CB6943F40033CB61CB6928
:1016700003F4003304938B6943F004038B6189699D
:10168000039201F0040104910421CDE900106946A0
:101690002846FFF753F90820CDE90004694628469B
:1016A0000294FFF74BF9002211462620FFF78EFA2D
:1016B0002620FFF77FFA06B070BD00000038014019
:1016C00000100240000801400044004090F83A3009
:1016D000202B22D1F9B1F2B190F83830012B1CD077
:1016E00081628285C2850021C163222280F83A206E
:1016F00080F838100168CA6842F48072CA600168D4
:101700004A6942F001024A610068C16841F0200163
:10171000C160002070470120704702207047000020
:1017200070B504462048214D84421AD1204968787A
:1017300000F014FF0122691C2046FFF7C7FF80B1AB
:101740002046FFF725FF10B11AA000F0B3FB1749A0
:101750000122491C2046FFF7B9FF012801D1FFF7FC
:1017600067FA184884421DD1114928782C3100F0BD
:10177000F5FE01220D492046FFF7A8FF002811D0F1
:101780002046FFF705FF10B10AA000F093FB0122ED
:1017900006492046FFF79AFF012803D1BDE87040B3
:1017A000FFF746BA70BD0000501500200000002071
:1017B000380300206572726F72207365742049547B
:1017C0000D0A0000901500202DE9F843044690F81A
:1017D00039001F4616460D46202850D1A5B19EB1AE
:1017E00094F8380001284AD0012084F838004FF0DE
:1017F0000008C4F83C80212084F83900FFF77CF908
:10180000A6848146E68426E00120BDE8F883E08CCA
:10181000401EE084A0684B46B0F5805F4FF00002A8
:101820004FF080012046009703D000F002FBE8B99A
:101830000DE000F0FEFAC8B928882168C0F308005E
:101840004860206908B16D1C05E0AD1C03E021680B
:1018500015F8010B4860E08C0028D8D14B460022D7
:1018600040212046009700F0E4FA08B10320CCE7BD
:10187000202084F8390084F838800020C5E7022051
:10188000C3E77047FEE70000094808B5816941F0E9
:1018900020018161816901F020010091816941F09D
:1018A00004018161806900F00400009008BD00001F
:1018B0000010024010B588B014216846FEF739FCCC
:1018C00000241548059413490694016040F2CF2185
:1018D000C0E901144FF4FA61C0E903148461FFF711
:1018E00085FC08B1FEF790FF0620CDE900046946AB
:1018F0000948FFF7A1FD08B1FEF786FF059405A989
:1019000005480694FFF74AFC002801D0FEF77CFF4B
:1019100008B010BD00040040101500200C4810B5A0
:101920000A4901604FF4E1314160002181600C22DD
:10193000C160C0E904128161C161FFF729FE00287E
:1019400003D0BDE81040FEF75FBF10BD0038014076
:10195000501500200C4810B50A4901604FF4E131E0
:101960004160002181600C22C160C0E904128161E4
:10197000C161FFF70DFE002803D0BDE81040FEF75F
:1019800043BF10BD0044004090150020FEE77047A3
:101990000907090E002806DA00F00F0000F1E02028
:1019A00080F8141D704700F1E02080F800147047A3
:1019B00070477047FFF7A6B830B58FB0282168464A
:1019C000FEF7B7FB14210AA8FEF7B3FB01210804B8
:1019D000CDE900100024029402250491CDE90750BE
:1019E0004FF4E01009906846FFF740FA0F20CDE968
:1019F0000A056802CDE90C4002210AA80E94FFF7FF
:101A000029F90FB030BD00000D48016841F0010117
:101A1000016041680B4A1140416001680A4A114067
:101A20000160016821F480210160416821F4FE0118
:101A300041604FF41F0181600449C0030860704792
:101A4000001002400000FFF8FFFFF6FE08ED00E086
:101A50000148FFF712BC000010150020F0B5026825
:101A6000164B174C174D4FF08047984205D0B8429F
:101A700003D0A04201D0A84203D122F070064A68E8
:101A80003243984205D0B84203D0A04201D0A842C8
:101A900003D122F44074CA68224322F080044A69C8
:101AA000224302608A68C2620A688262984201D157
:101AB0000969016301214161F0BD0000002C014072
:101AC000000400400008004010B5846842EA032288
:101AD00024F47F440A432243826010BD30B403687B
:101AE0009A6822F070044A68224322F007040A68C8
:101AF00022439A604A6812F00F0F1FD11211082A70
:101B00001CD2DFE802F01B1B1B1B0B1D23040B69FF
:101B1000D1E90221006830BCFFF7D6BF0268136A22
:101B2000146A24F00104146202689469096924F0BB
:101B3000F00444EA011191610068036230BC70470F
:101B40000A698968006830BC00F006B80A698968CB
:101B5000006830BC00F011B810B5036A046A24F0C4
:101B600001040462846924F0F00444EA021423F0BE
:101B70000A020A438461026210BD10B5036A23F0B1
:101B8000100303628369046A23F4704343EA023258
:101B900024F0A00343EA01118261016210BD10B577
:101BA000406A0021C185C184FFF768FC10BD01684F
:101BB000CA6822F49072CA6001684A6922F0010280
:101BC0004A61202180F83A10704710B590F83A1019
:101BD000222901D0022010BD8168B1F5805F11D0AB
:101BE0000169002901681FD0496801F07F03816AFB
:101BF0004A1C82620B70C18D491E0904090CC18503
:101C000018D02BE00269816A002A0268526805D068
:101C1000D2B20A80816A491C8162ECE7C2F30802F1
:101C20000A80816A891CF7E74A68816A4B1C8362D3
:101C30000A70E0E70168CA6822F02002CA60016801
:101C4000CA6822F48072CA6001684A6922F00102FF
:101C50004A61202180F83A10FFF762FD002010BD94
:101C60002DE9F041044600680169E26821F4405121
:101C7000114301612169A068084361690843216833
:101C8000CA6841F20C639A430243CA602068416902
:101C9000A26921F44071114341614C4920686425D7
:101CA000322688423CD1FFF79BF800EBC00101EBE4
:101CB000001061688900B0FBF1F7FFF791F800EBC5
:101CC000C00101EB00106168B0468900B0FBF1F083
:101CD000B0FBF5F06FF01801484307EB800106EB0D
:101CE0000110B0FBF5F000F0F006FFF779F800EB1B
:101CF000C00101EB001061688900B0FBF1F0B0FB9E
:101D0000F5F006EB0016FFF76BF800EBC00101EBF6
:101D1000001061688900B0FBF1F7FFF761F83BE064
:101D2000FFF74EF800EBC00101EB0010616889007D
:101D3000B0FBF1F7FFF744F800EBC00101EB001036
:101D40006168B0468900B0FBF1F0B0FBF5F06FF0D0
:101D50001801484307EB800106EB0110B0FBF5F0DA
:101D600000F0F006FFF72CF800EBC00101EB0010CB
:101D700061688900B0FBF1F0B0FBF5F006EB0016EE
:101D8000FFF71EF800EBC00101EB0010616889004D
:101D9000B0FBF1F7FFF714F800EBC00101EB001006
:101DA00061688900B0FBF1F0B0FBF5F06FF018014D
:101DB000484307EB800108EB0110B0FBF5F0216808
:101DC00000F00F0030448860BDE8F0810038014029
:101DD00090F83910212901D0022070478168B1F5AF
:101DE000805F016A0BD04A1C026202680978516068
:101DF000C18C491E0904090CC1840ED017E0098862
:101E00000268C1F30801516001690029016A02D02A
:101E1000491C0162ECE7891CFBE70168CA6822F0F3
:101E20008002CA600068C16841F04001C1600020C2
:101E300070472DE9F041984617460E460446069D28
:101E40001DE0681C1BD02DB1FEF756FEA0EB08006C
:101E5000A84214D92068C16821F4D071C1602068FB
:101E6000416921F001014161202084F8390084F8A2
:101E70003A00002084F838000320BDE8F081206893
:101E8000006836EA000004D00020B842D9D0002013
:101E9000F3E70120F9E700000148FFF7F1BA00007D
:101EA000501500200148FFF7EBBA00009015002004
:101EB000FEE700000FB4054B10B503A9044A0298D1
:101EC00000F050F810BC5DF814FB00002924000855
:101ED000240000200FB4084B10B504A902AA0398EF
:101EE00000F040F8044602A9002000F0DCF920468A
:101EF00010BC5DF814FB0000A722000802E008C82F
:101F0000121F08C1002AFAD170477047002001E073
:101F100001C1121F002AFBD1704700000A4C4FF488
:101F200096760025094800F0B5FA3046FEF7F4FC35
:101F300020680128F6D1064800F0BAF905A0FFF79D
:101F4000B9FF2560EEE700000800002090030020A4
:101F5000A00B002064657669636542656E67696EF3
:101F60003A323B002DE9FF4F8BB0884605460026EC
:101F700006E025280BD0DDE90D1290476D1C761C7C
:101F800028780028F5D10FB03046BDE8F08F002446
:101F9000A146A2460122AE4900E0044315F8013FE4
:101FA000203B02FA03F00842F7D128782A2810D003
:101FB0006FF02F022878A0F13001092915D809EB1C
:101FC000890102EB410144F0020400EB01096D1CA0
:101FD000F0E758F8041B5FEA010903D544F4005404
:101FE000C9F1000944F002046D1C28782E2817D18D
:101FF00015F8010F44F004042A280ED06FF02F02C8
:102000002878A0F1300109290AD80AEB8A0102EBED
:10201000410100EB010A6D1CF2E758F804AB6D1C9E
:1020200028786C280FD006DC4C2817D068280DD0F3
:102030006A2814D104E0742810D07A280FD10DE05A
:1020400044F400140AE044F4801401E044F4401421
:102050006978814202D104F580146D1C6D1C2878CA
:10206000692865D006DC00288DD0632827D0642835
:1020700006D15DE06E2808D073282AD0752877D065
:10208000DDE90D129047761CE0E0C4F3025002280F
:1020900009D003280DD0D8F8001004280DD00E6008
:1020A00008F10408D2E0D8F80010F217C1E9006284
:1020B000F6E7D8F800100E80F2E70E70F0E718F897
:1020C000041B8DF8001000208DF80100EB46012064
:1020D00003E058F804BB4FF0FF3061074FF00007F2
:1020E00001D40AE07F1C57450DDA8742FADB1BF862
:1020F00007100029F6D106E07F1C8742FCDB1BF8A5
:1021000007100029F8D1DDE90D23A9EB070081466E
:10211000214600F0B1F83044C61904E0DDE90D12A3
:102120001BF8010B90477F1EF8D22146484688E0F5
:1021300058F8040BC4F302514FF00A0B032900D1E5
:1021400000B2042900D140B2002802DA40422D2119
:1021500002E0210505D52B218DF82410012104E092
:1021600006E0E10710D02021F6E708AF089113E060
:1021700058F8040BC4F302514FF00A0B032900D1A5
:1021800080B2042900D1C0B20021EEE75946FEF723
:102190001FF9303107F8011D0028F7D1ADEB07001A
:1021A00000F1200B600702D524F4803401E04FF0E9
:1021B000010ADA4502DDAAEB0B0000E000208246AE
:1021C00000EB0B0108980144A9EB01000A90E00321
:1021D00006D4DDE90D2321460A9800F04DF80644A7
:1021E0004FF0000908E009A911F80900DDE90D1216
:1021F000904709F10109761C08998945F3DBE00352
:102200000CD5DDE90D2321460A9800F035F8064487
:1022100004E0DDE90D1230209047761CBAF1000190
:10222000AAF1010AF5DC05E0DDE90D1217F8010B52
:102230009047761CBBF10001ABF1010BF4DC0A986E
:102240002146DDE90D2300F005F806446D1C97E6F4
:10225000092801002DE9F041044600251E461746D5
:10226000880404D405E039462020B0476D1C641E64
:10227000F9D52846BDE8F0812DE9F0410446002556
:102280001E469046C80301D5302700E02027880469
:1022900004D505E041463846B0476D1C641EF9D5AB
:1022A0002846BDE8F0810A68531C0B601070704727
:1022B00010B58EB0044634216846FDF73AFF34214C
:1022C0006846FDF736FF04F1700230A16846FFF75B
:1022D00001FE0146684600F0EDFBC820FEF71CFB3E
:1022E00034216846FDF725FF2CA16846D4F88420E8
:1022F000FFF7F0FD0146684600F0DCFBC820FEF762
:102300000BFB34216846FDF714FF04F1880227A176
:102310006846FFF7DFFD0146684600F0CBFBC820AA
:10232000FEF7FAFA34216846FDF703FF54F8942FBC
:1023300022A16846FFF7CEFD0146684600F0BAFBD1
:10234000C820FEF7E9FA34216846FDF7F2FE1EA127
:1023500068466268FFF7BEFD0146684600F0AAFBCA
:10236000C820FEF7D9FA34216846FDF7E2FE1AA12B
:102370006846A269FFF7AEFD0146684600F09AFB89
:10238000C820FEF7C9FA0EB010BD000066696C6582
:102390004E616D653A25733B0000000066696C650F
:1023A00053697A653A25643B0000000066696C65F4
:1023B000547970653A25733B0000000066696C65CE
:1023C0004E756D3A25643B0066696C65456E6372B7
:1023D0007970743A25643B0046696C654F626A3ACD
:1023E00025643B0010B504464FF40061FDF7A1FEE3
:1023F0000020C4F80808C4F80408C4F8000810BD98
:1024000010B50446D0F8080810B12046FFF7EAFFDF
:1024100040F20140C4F808080020C4F80408C4F8D9
:102420000008C4F80C0810BD13B5FF23012269464B
:102430000148FFF7C9F91CBD5015002038B5054605
:102440000C460020206069460648FEF7DEF908B118
:10245000012038BD21689DF8000068542068401CA8
:10246000F0E700006403002038B505460C46002064
:10247000206069460648FEF7C8F908B1012038BD5A
:1024800021689DF8000068542068401CF0E70000B7
:1024900038030020D0F80C087047000010B586B053
:1024A0000024C820CDE90104194B009003F1C802B3
:1024B00003941849049402F51270FEF7C9F9012239
:1024C00015491448FFF702F910B114A0FFF7F2FC08
:1024D0008020CDE90104184B400003F58072009084
:1024E00003941649049402F1AC00FEF7B1F90A49CD
:1024F0000122491E1148FFF7E9F8002805D006B06F
:102500000FA0BDE81040FFF7D5BC06B010BD00001D
:10251000280000205015002001000020687561721D
:10252000743120696E6974206661736C65202C7249
:10253000657365740D0A0000B80100209015002035
:1025400068756172743220696E6974206661736C9B
:1025500065202C72657365740D0A00008A68002A74
:1025600010D0CB8AD054C88A401C82B2CA82C88993
:10257000824201D30022CA824A8B824203D2488B14
:10258000401C48837047C88A0883704770B5002391
:102590000EE0D0F80458CC5C445500F6040430CC6E
:1025A000641C94FBF5F605FB16445B1CC0F804485C
:1025B0009342EEDBD0F80C181144C0F80C1870BD33
:1025C0002DE9FE434B4D0026012728684A4C02287E
:1025D0007BD14AA12046FDF7B7FD70B104F170022E
:1025E000904649A12046A666FDF7C0FD41464AA097
:1025F000FFF760FC41464CA03DE04FA13E48FDF78F
:10260000A3FD90B13C4A4FA184323B48FDF7AEFD9B
:1026100054F8841F4FA0FFF74DFC52482168FFF784
:10262000EFFE54F8841947A025E04FA13248FDF78A
:102630008BFD68B1304A4FA1883290462E48FDF795
:1026400095FD41464FA0FFF735FC414651A012E0F1
:1026500054A12948FDF778FD80B1274A53A1A8323B
:102660002548FDF783FD54A0D4F8A810FFF722FCFD
:102670004EA0D4F8A810FFF71DFC22E052A11E487E
:10268000FDF762FD98B16A4652A11B48FDF76EFD49
:10269000694655A0FFF70EFC58A16846FDF754FDAA
:1026A00010B1C4F898600CE0C4F8987009E055A126
:1026B0001148FDF749FD20B155A0FFF7FBFB0220B3
:1026C000286064210C48FDF734FD286803280ED1EA
:1026D000D4E919201044A06607492248FFF756FFA5
:1026E000D4F88410A06E884201D12F60A666BDE8A0
:1026F000FE830000100000206014002066696C65F5
:102700004E616D650000000066696C654E616D6527
:102710003A255B5E3B5D000066696C654E616D65E8
:10272000203D2025730D0A0066696C654E616D655C
:102730003A25733B0000000066696C6553697A6551
:102740000000000066696C6553697A653A25643B50
:102750000000000066696C6553697A65203D20259C
:10276000640D0A00500C002066696C655479706530
:102770000000000066696C65547970653A255B5EFF
:102780003B5D000066696C6554797065203D2025CD
:10279000730D0A0066696C65547970653A25733B60
:1027A0000000000066696C654E756D0066696C65B9
:1027B0004E756D3A25643B0066696C654E756D20FB
:1027C0003D2025640D0A000066696C65456E6372E4
:1027D0007970740066696C65456E63727970743ADD
:1027E000255B5E3B5D00000066696C65456E63724B
:1027F000797074203D2025730D0A000066616C73AA
:1028000065000000646576696365426567696E000E
:1028100064657669636542656E67696E3A313B004F
:102820002DE9FE43514D002701266868504C0128D0
:102830007ED150A12046FDF787FC50B104F1700213
:1028400090464FA12046A766FDF790FC414650A058
:1028500032E053A14648FDF777FC80B1444A53A1CA
:1028600084324348FDF782FC54A0D4F88410FFF76B
:1028700021FB5648D4F88410FFF7C2FD5EE054A156
:102880003B48FDF761FC48B1394A54A18832904673
:102890003748FDF76BFC414654A00DE057A1344882
:1028A000FDF752FC58B1324A56A194323048FDF738
:1028B0005DFC57A0D4F89410FFF7FCFA3EE058A155
:1028C0002B48FDF741FC98B16A4658A12848FDF70E
:1028D0004DFC69465AA0FFF7EDFA5EA16846FDF788
:1028E00033FC10B1C4F8987028E0C4F8986025E073
:1028F0005AA11F48FDF728FC00B36A4659A11C489D
:102900000097FDF733FC5AA00099FFF7D3FA00981F
:102910000A2190FBF1F201FB120290FBF1F104EBB2
:10292000820204EB8101C2F89860C1F8986000E06F
:1029300008E0C4F8AC000220C5E9006064210C483E
:10294000FDF7F7FB686802280ED1D4E9192010447E
:10295000A06607491D48FFF719FED4F88410A06E41
:10296000884201D16E60A766BDE8FE8308000020A2
:10297000A00B002066696C654E616D65000000006B
:1029800066696C654E616D653A255B5E3B5D000076
:1029900066696C654E616D65203D2025730D0A00EA
:1029A00066696C6553697A650000000066696C654C
:1029B00053697A653A25643B0000000066696C65DE
:1029C00053697A65203D2025640D0A00900300209C
:1029D00066696C65547970650000000066696C6515
:1029E000547970653A255B5E3B5D000066696C65F5
:1029F00054797065203D2025730D0A0066696C6569
:102A00004E756D0066696C654E756D3A25643B00C8
:102A100066696C654E756D203D2025640D0A0000C9
:102A200066696C65456E63727970740066696C6581
:102A3000456E63727970743A255B5E3B5D00000001
:102A400066696C65456E6372797074203D202573EC
:102A50000D0A000066616C736500000046696C65D4
:102A60004F626A0046696C654F626A3A25643B00B2
:102A700046696C654F626A203D2025640D0A00009E
:102A8000FEF748F8FEF798FFFEF7FEFEFEF712FF8E
:102A9000FEF744FFFEF75EFFFFF700FD0448FEF778
:102AA000DFFBFFF73BFA6420FDF736FFFBE7000092
:102AB000101500208AB20146FF230148FEF784BEAC
:102AC0009015002000000000000000000102030437
:102AD000060708090000000001020304DDDDDDDD5A
:102AE000DCBBBBDDDDDDDDDDDDDDDDDD988888889F
:102AF0008888888877777777778888888555555646
:102B0000666666666666666666688888833333329C
:102B100022222222222222222228888D3C2B0008D7
:102B20000000002028000000FC1E0008642B0008A4
:102B300028000020A81900000C1F00080000000059
:102B40000000000000000000010000000200000082
:102B500001000000100000000000000000A24A0474
:042B60000000000071
:04000005080000ED02
:00000001FF
