:020000040800F2
:10000000A81C002001010008FB1B0008B71A00080B
:10001000F91B000829080008D12100080000000091
:100020000000000000000000000000001F1C00088D
:1000300055080008000000001D1C0008211C0008D5
:100040001B0100081B0100081B0100081B01000820
:100050001B0100081B0100081B0100081B01000810
:100060001B0100081B0100081B0100081B01000800
:100070001B0100081B0100081B0100081B010008F0
:100080001B0100081B0100081B0100081B010008E0
:100090001B0100081B0100081B0100081B010008D0
:1000A0001B0100081B0100081B0100081B010008C0
:1000B0001B010008BD1C00081B0100081B010008F3
:1000C0001B0100081B0100081B0100081B010008A0
:1000D0001B010008A9210008C52100081B01000818
:1000E0001B0100081B0100081B010008DFF80CD0F1
:1000F00000F0D8F900480047892D0008A81C00200E
:100100000648804706480047FEE7FEE7FEE7FEE7B1
:10011000FEE7FEE7FEE7FEE7FEE7FEE7751C0008E8
:10012000ED00000840EA01039B0703D009E008C97D
:10013000121F08C0042AFAD203E011F8013B00F8AC
:10014000013B521EF9D27047D2B201E000F8012BF8
:10015000491EFBD270470022F6E710B513460A4647
:1001600004461946FFF7F0FF204610BD30B505469E
:100170002A460B4612F8010B13F8014B08B1A042B6
:10018000F8D01CB1002802D06D1CF1E7284630BD24
:100190000FB400B58DB010A909900B9000914FF0ED
:1001A000FF300A9000200C90054806900548079003
:1001B0006A4609A80F9900F047F90DB05DF814FBE5
:1001C00065040008830400082DE9FF5F1D464FF019
:1001D000FF3BD5E9014691465F464FF00008A9690B
:1001E0007F1C01988847296A824688470028F6D1F3
:1001F000BAF1FF3F0CD024F4C064002E19DD600674
:1002000014D5BAF12B0F09D0BAF12D0F0ED103E09E
:10021000584604B0BDE8F09F44F48064A9697F1C8F
:1002200001988847761E8246002E02DDBAF1300F13
:1002300003D0B9F1000F26D032E0A969761E44F44C
:1002400000747F1C019888478246002E05DDBAF1B4
:10025000780F06D0BAF1580F03D0B9F1000F10D0C3
:100260001EE0B9F1000F02D0B9F1100F18D1A96941
:10027000761E24F400747F1C019888478246102063
:1002800002E0082000E00A20814609E008FB090896
:10029000A969761E44F400747F1C01988847824641
:1002A000002E05DD4946504600F0BAF80028EDDA88
:1002B000E96901988847A00502D46FF00100A8E71A
:1002C000E00725D1600613D5600502D5C8F100000E
:1002D00000E0404629680A1D2A600968220501D508
:1002E000087015E0220701D5088011E008600FE0D2
:1002F0002868011D29600068210502D580F800806A
:1003000006E0210702D5A0F8008001E0C0F80080D7
:1003100038467EE72DE9FF5FD2E901A74FF00008DC
:10032000916999461446DDF838B0464601988847E9
:10033000054659EA0B0005D009E0A169761C019831
:1003400088470546216A284688470028F5D1681C59
:1003500003D05FEACA7005D015E04FF0FF3004B05B
:10036000BDE8F09F2068011D2160D0F800800AE000
:100370005FEACA7001D108F8015BA169761C7F1E93
:10038000019888470546002F1ADD681C18D0B9F17E
:10039000000F0DD0E81705EBD060421120F01F00D0
:1003A00059F822102A1A012090400142E0D107E0BA
:1003B000BBF1000FDCD1216A284688470028D7D03E
:1003C000E16901988847BBF1000F07D1002E05DDD8
:1003D0005FEACA7002D1002188F80010A068B84214
:1003E00003DDBBF1000F03D017B16FF00100B6E7DA
:1003F0003046B4E730B50B460146002020220124E8
:1004000009E021FA02F59D4205D303FA02F5491BE2
:1004100004FA02F52844151EA2F10102F1DC30BDF8
:100420003A2800D2303820F02002412A01D3A2F12C
:100430003700884201D34FF0FF3070470268114403
:100440001378016018467047D1600449516104492E
:10045000116200211161114600F03CB83D04000812
:10046000C9040008426842B1016811F8013B23B198
:10047000521EC0E90012184670470121C160881E53
:10048000704742685AB1C368016843B983688B42B8
:1004900005D0491E521CC0E90012002070474FF0E1
:1004A000FF307047064C074D06E0E06840F001035E
:1004B00094E8070098471034AC42F6D3FFF71AFED1
:1004C000382E0008582E0008C0B24FF4F05100F04A
:1004D00097B900002DE9F34F8BB04FF0000801F100
:1004E0000C000C464FF0010B46460DF1080A019036
:1004F0006269012101989047051E2DD0252D2CD031
:10050000216A8847C0B16269012101989047216A38
:1005100088470028F7D1411E62690198904700E0A2
:10052000761CA1690B988847216A88470028F7D173
:10053000E1690B988847DBE7A1690B988847074674
:10054000A84201D1761CD3E7E1690B9888477F1C4C
:1005500002D1B8F1000F6FD046E1002762693D4635
:100560003946019890472A2804D1626901210198EF
:1005700090470125DFF88492626901210198904734
:10058000A0F130010A290AD24F45E5DC07EB8701CB
:1005900000EB4107303FDFD445F01005ECE7E906FA
:1005A00001D46FF000476C280AD04C2814D068287A
:1005B00015D06A280DD074281CD07A281AD01DE0D6
:1005C00062690121019890476C2802D045F004052A
:1005D00014E045F002050DE045F020050AE06269EF
:1005E000012101989047682802D045F0080505E0F0
:1005F00045F400656269012101989047C4E90157FB
:1006000065283DD019DC58287AD00CDC452837D035
:1006100004DC252826D0412831D131E046282FD0CE
:1006200047282CD12CE05B2877D0612828D063287C
:100630007CD0642823D15AE0D0E06F2848D008DC71
:1006400066281DD067281BD0692821D06E2816D1B6
:1006500027E0702845D0732868D0752847D07828BF
:100660000DD14DE0A1690B988847054625283FF438
:1006700069AFE1690B9888476D1C3FF46AAFB3E03E
:1006800023466A466FF001000B99AFF300809EE0AD
:1006900045F040006060A80723464FF0000236D4C2
:1006A0003EE0E8077FF447AF2068011D2160006845
:1006B000290501D506701BE7290701D5068017E734
:1006C000A90703D5F117C0E9006111E706600FE73C
:1006D00045F040006060A80723464FF0080216D49A
:1006E0001EE040F60E0125EA0100606016E045F0CC
:1006F00040006060A80723464FF00A0207D40FE0CD
:1007000045F040006060A80708D5234610226FF02E
:1007100001000B99AFF3008059E007E02346102257
:100720006FF001000B99FFF74FFD50E04FF000090B
:100730004F464B46632802D05B2806D040E0E806CF
:1007400001D40120A06001273AE0626901210198EB
:1007500090475E2805D14FF001096269494601982A
:100760009047216939B900210A46534643F82120B0
:10077000491C0829FADBB0B3216969B9C11700EB3C
:10078000D16253110AEB830122F01F02821A012069
:100790000B68904003430B60626901210198904708
:1007A0005D28E8D1B9F1000F09D00020514651F879
:1007B0002020D24341F82020401C0828F7DB02AB60
:1007C000224600976FF001000B99FFF7A3FD002868
:1007D0000CDA401C08D1BBF1000F05D04FF0FF3000
:1007E0000DB0BDE8F08FFFE74046F9E7E90701D11A
:1007F00008F1010806444FF0000B79E6CCCCCC0C94
:100800007F2801D9002208E0064A02EB5002C00707
:10081000127800D1120902F00F0201209040084026
:1008200070470000F82D0008FEE730B590F8405002
:100830000124AC40C56B6C60046863604368102B96
:10084000036803D099600068C26030BD9A60006898
:10085000C16030BD7047704701680A6822F00E021F
:100860000A6001680A6822F001020A6090F84020DC
:10087000C36B012101FA02F25A6080F821100021B5
:1008800080F820100846704710B590F82110002419
:10089000022903D00421816301243DE001680A6834
:1008A00022F00E020A6001680A6822F001020A6062
:1008B0001A4A0168914201D1012121E0174A1432FC
:1008C000914201D110211BE0144A2832914201D1FA
:1008D000891515E0114A3C32914201D189140FE08B
:1008E0000E4A5032914202D14FF4803108E00B4A57
:1008F0006432914202D14FF4801101E04FF08071D7
:10090000064A083A5160012180F82110002180F840
:100910002010416B01B18847204610BD08000240FD
:1009200030B528B308C8134914221944B1FBF2F1B9
:100930008900C16310498163022141771A6843F637
:10094000F0718A43D0E900142143D0E902452C43D9
:1009500021430469214344692143846921431143AC
:10096000196000214163012242770177084630BDBA
:10097000012030BDF8FFFDBF0000024070B5044605
:1009800090F82000002501280CD0012084F82000D8
:1009900094F821600020012E06D084F82000022562
:1009A000284670BD022070BD022684F82160A06335
:1009B0002068066826F0010606602046FFF735FF2E
:1009C000E06A00282068016802D041F00E0106E0CC
:1009D00021F0040101602068016841F00A01016012
:1009E0002068016841F001010160D9E770B5044653
:1009F00000F0ECF80546601C02D00448007804447E
:100A000000F0E4F8401BA042FAD370BD18000020AB
:100A10002DE9F84FDFF890A100220AF1040B1446EB
:100A200001274FF00F090BF1040E00BF0B6807FA06
:100A300004F52B40AB4274D1DFF870C14E68A6EBD1
:100A40000C0866452BD00DDC032E34D005DC36B304
:100A5000012E19D0022E2FD11BE0112E16D0122EEE
:100A60002AD119E0B8F5881F19D006DCB8F5803F07
:100A700015D0B8F5801F1FD111E0B8F5001F0ED0BA
:100A8000B8F5041F18D10AE0CA6815E0CA68121D3B
:100A900012E0CA6808320FE0CA680C320CE08A68BB
:100AA0002AB1012A4FF0080203D0456104E0042274
:100AB00002E0056100E00022FF2B01D8064601E0BC
:100AC00000F104064FEA840501D9A5F12005D6F806
:100AD00000C009FA05F82CEA080C02FA05F54CEA00
:100AE000050CC6F800C04D68ED0057D5304DAE6915
:100AF00046F00106AE61AD6924F0030605F001057C
:100B000000952C4D06EB050CDCF80850A6074FEAC3
:100B1000167809FA08F6B543274EB04202D10026EE
:100B200010E03BE0254EB04201D101260AE0244E00
:100B3000B04201D1022605E0224EB04201D1032687
:100B400000E0042606FA08F62E43CCF808604D684B
:100B5000DAF80060ED03554601D51E4300E09E43E0
:100B60002E604D68DBF80060AD035D4601D51E4385
:100B700000E09E432E604D68DEF80060ED02754691
:100B800001D51E4300E09E432E604D68AD020E4D20
:100B90002E6801D51E4300E09E432E60641C102C7D
:100BA000FFF444AFBDE8F88F0004014000001110CD
:100BB000001002400000014000080140000C01400C
:100BC00000100140001401400C04014001488068FD
:100BD0007047000018000020024881680278114424
:100BE0008160704718000020074810B5016841F087
:100BF00010010160032000F06BF8002000F006F8FF
:100C000000F024F8002010BD0020024070B50D4D0A
:100C100004464FF47A712878B1FBF0F00A4909686C
:100C2000B1FBF0F000F0F4FA48B9102C07D2002222
:100C30002146501E00F02CF800206C6070BD012091
:100C400070BD00001800002024000020094808B5ED
:100C5000816941F001018161816901F00101009127
:100C6000C16941F08051C161C06900F080500090BD
:100C700008BD00000010024000F01F020121914059
:100C80004009800000F1E020C0F80011704700002A
:100C9000F0B40E4B1B680C46C3F30223C3F10705E7
:100CA000042D00D90425191D072901D2002300E0D5
:100CB000DB1E012606FA05F1491E214099409E409F
:100CC000761E16403143F0BC00F098BF0CED00E0FA
:100CD000064900F0070208684FF6FF03184040EA93
:100CE0000220034A10430860704700000CED00E04A
:100CF0000000FA052DE9F047DFF8548105460E465D
:100D0000D8F8000000F00700B0420CD2D8F800106C
:100D100021F007013143C8F80010D8F8000000F0B6
:100D20000700B0426FD128684A4C810712D54007AE
:100D300003D5606840F4E06060602878000703D560
:100D4000606840F4605060606068A96820F0F0005E
:100D5000084360602878C00744D06868012816D02E
:100D60002168022816D0890700294CDA616821F031
:100D7000030101436160FFF729FF6968074641F2FB
:100D8000883001290ED00229814618D026E021683A
:100D90008903E9E78901E7E7FFF718FFC11B494528
:100DA00001D918E081466068C0F381000128F3D1C1
:100DB00018E000BFFFF70AFFC11B49450BD8606868
:100DC000C0F381000228F5D10CE000BFFFF7FEFE62
:100DD000C11B494502D90320BDE8F087606810F0C7
:100DE0000C0FF3D1D8F80010404601F00701B142D2
:100DF0000BD9016821F0070131430160006800F060
:100E00000700B04201D00120E6E72878400705D569
:100E10006068E96820F4E0600843606028780007B3
:100E200006D56068296920F4605040EAC10060601E
:100E300000F036F86168084AC1F30311515CC840FC
:100E4000064908600020FFF7E1FE0020C4E700002B
:100E50000020024000100240E02D00082400002085
:100E60000448054900684968044AC1F30221515CFD
:100E7000C84070472400002000100240F02D0008F8
:100E80000448054900684968044AC1F3C221515C1D
:100E9000C84070472400002000100240F02D0008D8
:100EA00012A185B00FC98DE80F0014A0144A006884
:100EB00004905168134801F00C03042B10D0082B48
:100EC0000ED1C1F38343C9031DF803000AD551684D
:100ED00004AAC1F34041515C0A4A5043B0FBF1F00F
:100EE00005B0704708494843FAE7000002030405CB
:100EF000060708090A0B0C0D0E0F10100102000066
:100F00000010024000127A0000093D002DE9F84F60
:100F100004460078B94DC00748D06868C0F3810026
:100F2000012807D06868C0F38100022809D16868E9
:100F3000C00306D52868800338D5606800286FD0C4
:100F400034E06068B0F5803F0BD010B1B0F5A02F51
:100F500011D0286820F480302860286820F4802090
:100F600002E0286840F480302860606888B1FFF7AC
:100F70002DFE064609E0286840F480202860F0E74E
:100F8000FFF724FE801B642875D828688003F7D5F6
:100F90000CE0FFF71BFE064605E000BFFFF716FE5C
:100FA000801B6428F0D828688003F7D42078944EFA
:100FB00080074FF001094FF000083BD5686810F03A
:100FC0000C0F07D06868C0F38100022809D1686857
:100FD000C00306D42868800714D5206901281FD1D2
:100FE00010E02069B0B1C6F80090FFF7EFFD0746AA
:100FF00005E000BFFFF7EAFDC01B0228C4D828683F
:101000008007F7D52868616920F0F80040EAC10040
:1010100028600FE0C6F80080FFF7D8FD074606E01D
:10102000E9E000BFFFF7D2FDC01B022823D82868E3
:101030008007F7D4207800072CD57248A169D9B170
:10104000C0F80090FFF7C2FD074604E0FFF7BEFDC1
:10105000C01B02280FD8686A8007F7D56A484FF48A
:10106000FA510068B0FBF1F0009000BF0098411EFB
:101070000091FAD20EE080E0C0F80080FFF7A6FDF4
:10108000074604E0FFF7A2FDC01B022875D8686A76
:101090008007F7D42078400760D5E8690027C000B2
:1010A00008D4E86940F08050E861E869012700F061
:1010B0008050009055480168C90513D401688346E3
:1010C00041F480710160FFF781FD824606E000BFB8
:1010D000FFF77CFDA0EB0A0064284ED8DBF8000087
:1010E000C005F5D5E06801280AD008B1052813D05D
:1010F000286A20F001002862286A20F0040002E03B
:10110000286A40F001002862E06841F2883B98B10B
:10111000FFF75CFD82460BE0286A40F0040028627D
:10112000EEE700BFFFF752FDA0EB0A0159455AD880
:10113000286A8007F6D50CE0FFF748FD824605E0F7
:10114000FFF744FDA0EB0A0159454CD8286A8007F7
:10115000F6D41FB1E86920F08050E861E06988B3F7
:101160006968C1F38101022945D00228C6F8608070
:1011700004D0FFF72BFD044638E034E0FFF726FDEE
:10118000074604E0FFF722FDC01B02282BD8286881
:101190008001F7D4206AB0F5803F05D16868A16866
:1011A00020F4003008436860D4E908010843696806
:1011B00021F4741108436860C6F86090FFF706FDDB
:1011C000044606E015E000BFFFF700FD001B022803
:1011D00009D828688001F7D50BE000BFFFF7F6FCBF
:1011E000001B022802D90320BDE8F88F286880017F
:1011F000F4D40020F8E70120F6E7000000100240D8
:10120000000042428004424224000020007000405E
:1012100010B5401EB0F1807F01D3012010BD4FF00A
:10122000E02460610F21601700F0E8FC0020A0615D
:1012300007202061002010BD7047704730B590F83E
:101240003C20012A20D0012280F83C20022380F893
:101250003D3003685C6824F070045C6003685C687F
:101260000D682C435C6003689C6824F080049C60DB
:1012700003689C6849680C439C6080F83D2000210D
:1012800080F83C10084630BD022030BD10B5040087
:1012900003D094F83D0010B107E0012010BD0020FC
:1012A00084F83C00204600F00DF8022084F83D0050
:1012B000211D206800F008FD012084F83D00002079
:1012C00010BD000008B500680B49884212D10B48D8
:1012D000C16941F00201C161C069002200F0020051
:1012E000009011461D20FFF7D3FCBDE808401D20EB
:1012F000FFF7C2BC08BD000000040040001002401F
:101300000168CA6842F00102CA600068016841F0E1
:101310000101016000207047704770B50446006805
:1013200001694FF00005C943890715D4C168C94355
:10133000890711D4E91E01610120207720688069A6
:101340008007204602D0FFF7E7FF04E000F098F89E
:10135000204600F096F8257720680169C9434907BF
:1013600017D4C168C943490713D46FF00401016160
:10137000022020772068806910F4407F204602D048
:10138000FFF7CAFF04E000F07BF8204600F079F890
:10139000257720680169C943090716D4C168C94384
:1013A000090712D46FF0080101610420207720683A
:1013B000C0698007204602D0FFF7AEFF04E000F0CE
:1013C0005FF8204600F05DF8257720680169C94381
:1013D000C90617D4C168C943C90613D46FF01001F8
:1013E0000161082020772068C06910F4407F204602
:1013F00002D0FFF791FF04E000F042F8204600F031
:1014000040F8257720680169C943C90708D1C16838
:10141000C943C90704D1891E0161204600F032F892
:1014200020680169C943090609D4C168C94309068E
:1014300005D46FF0800101612046FFF7FDFE2068B2
:101440000169C943490609D4C168C943490605D49D
:101450006FF040010161204600F06DF820680169DD
:10146000C94389060BD4C168C943890607D46FF004
:10147000200101612046BDE87040FFF7DEBE70BD6F
:101480007047704770B5164800254168491C416097
:10149000652900D145601349134801F0BBF9114992
:1014A000C1F8040408B101F01FFA104CD4F8180474
:1014B000012813D1C4F818542146D4F810240C483C
:1014C00004F58264FEF72EFE09492068C1F8040481
:1014D000002803DDBDE8704001F06CBB70BD00006A
:1014E000000000200C0D0020F008002084000020E7
:1014F000A004002070B5044690F83C00012818D0E4
:10150000012584F83C50022084F83D00204600F07C
:101510001BFC2068C16821F04001C1602068C168DF
:1015200021F48041C16084F83D50002084F83C00E3
:1015300070BD022070BD704710B504460068416957
:1015400094F83920C1F3C011212A0BD151B141695E
:1015500021F080014161206B08B1FFF77DF9204641
:1015600000F0B1FC2068416994F83A20C1F3801181
:10157000222A0BD151B1416921F040014161606BD8
:1015800008B1FFF769F9204600F08FFC002010BD7C
:1015900010B5044614A000F03DFE20680168016803
:1015A000C943C90703D141686FF001010160206898
:1015B0000168C943890703D441686FF002010160E3
:1015C00020680168C943490703D441686FF00401EA
:1015D000016020680168C943090703D4C1686FF03E
:1015E0000801016010BD0000726576206572726F9F
:1015F000720D0A0070B5026804461068D16853691C
:1016000010F00F0F50D003F0010501F49076354330
:101610005DD0C20705D0CA0503D5E26B42F00102D6
:10162000E263420705D5DA0703D0E26B42F002021B
:10163000E263820705D5DA0703D0E26B42F00402C9
:10164000E263020705D5DA0703D0E26B42F0080235
:10165000E263E26B002A33D0800604D5880602D507
:10166000204600F039FC20684069E16BC0F380102F
:10167000090700D428B3204600F017FC2068416910
:1016800049061AD5416921F040014161606BA0B162
:101690001B494163606BFFF7F7F8002810D0606BBF
:1016A000416BBDE870400847830610D58B060ED508
:1016B0002046BDE8704000F00FBC2046FFF768FFF1
:1016C00070BD2046FFF764FF0020E06370BD030695
:1016D00006D50B0604D52046BDE8704000F000BDDD
:1016E0004006F3D54806F1D5D168204621F04001E7
:1016F000D160202184F8391000F0DCF970BD0000C1
:101700000B1E000870B5040004D094F839000025C1
:1017100010B106E0012070BD84F83850204600F07A
:1017200023F8242084F839002068C16821F400518E
:10173000C160204600F01CFC2068016921F4904142
:1017400001612068416921F02A0141612068C16876
:1017500041F40051C160E563202084F8390084F829
:101760003A00002070BD00002DE9F04186B0002451
:1017700000940194029403940646DFF808C10368BC
:10178000414802210322414D80274FF02008634544
:1017900038D1836943F480438361836903F48043D0
:1017A0000493836943F0040383618069039200F02A
:1017B000040004900802CDE9000169462846FFF7BD
:1017C00027F92815CDE90004694628460294FFF759
:1017D0001FF9304D2E48C5E90004C5E902472C61C8
:1017E000C5E905482846EC61FFF79AF808B1FFF70C
:1017F00032F875630022114625206E62FFF748FA21
:1018000025203AE0DFF890C0634538D1C36943F43E
:101810000033C361C36903F400330493836943F065
:10182000040383618069039200F0040004900420A3
:10183000CDE9000169462846FFF7EAF80820CDE91E
:101840000004694628460294FFF7E2F8114D10485B
:1018500044351430C5E90004C5E902472C61C5E9E7
:1018600005482846EC61FFF75BF8756300221146D6
:1018700026206E62FFF70CFA2620FFF7FDF906B06E
:10188000BDE8F0810038014000100240000801402E
:10189000580002401C12002000440040F8B50446E5
:1018A00090F83A0020283CD1C1B3BAB394F838007C
:1018B000012836D0012084F83800A162A2850025D5
:1018C000E563222084F83A00636B17489862636BE3
:1018D0001648D862636B16481863606B13464563FD
:1018E0000846666B216802463046091DFFF746F838
:1018F000206801684168009184F83850C16841F45B
:101900008071C1602068416941F001014161206836
:10191000416941F0400141610020F8BDFFE701202D
:10192000FBE70220F9E70000651E0008A11E000881
:101930001B1E000890F83A30202B22D1F9B1F2B1E9
:1019400090F83830012B1CD081628285C28500213D
:10195000C163222280F83A2080F838100168CA68F2
:1019600042F48072CA6001684A6942F001024A6129
:101970000068C16841F02001C1600020704701206B
:10198000704702207047000070B504461348144D9C
:1019900084420ED11348016828460229407816D0A7
:1019A000114900F088FF0E490122491C2046FFF72B
:1019B000C1FF0E4884420FD129780D4800F068FF1E
:1019C0002046BDE8704001220549FFF7B3BF01463C
:1019D000084800F05DFFE6E770BD00009C110020A4
:1019E000000000200C0000202C000020DC11002052
:1019F000F00800208400002070472DE9F8430446D9
:101A000090F839001F4616460D46202850D1A5B142
:101A10009EB194F8380001284AD0012084F838009B
:101A20004FF00008C4F83C80212084F83900FFF70B
:101A3000CDF8A6848146E68426E00120BDE8F8833F
:101A4000E08C401EE084A0684B46B0F5805F4FF00C
:101A500000024FF080012046009703D000F071FB98
:101A6000E8B90DE000F06DFBC8B928882168C0F323
:101A700008004860206908B16D1C05E0AD1C03E05A
:101A8000216815F8010B4860E08C0028D8D14B463E
:101A9000002240212046009700F053FB08B10320AC
:101AA000CCE7202084F8390084F838800020C5E78E
:101AB0000220C3E77047FEE70D4808B5416941F0D1
:101AC000010141614069002200F0010000901146CF
:101AD0000F20FFF7DDF80F20FFF7CEF800221146A8
:101AE0001020FFF7D5F8BDE808401020FFF7C4B874
:101AF00000100240094808B5816941F02001816168
:101B0000816901F020010091816941F00401816146
:101B1000806900F00400009008BD00000010024041
:101B200010B588B014216846FEF715FB002415484F
:101B3000059413490694016040F2CF21C0E90114D5
:101B40004FF4FA61C0E903148461FFF79FFB08B109
:101B5000FEF781FE0620CDE9000469460948FFF73B
:101B6000C9FC08B1FEF777FE059405A9054806945F
:101B7000FFF764FB002801D0FEF76DFE08B010BD32
:101B8000000400405C1100200C4810B50A490160B7
:101B90004FF416414160002181600C22C160C0E910
:101BA00004128161C161FFF7ADFD002803D0BDE8DB
:101BB0001040FEF750BE10BD003801409C110020BF
:101BC0000C4810B50A4901604FF4164141600021EC
:101BD00081600C22C160C0E904128161C161FFF71C
:101BE00091FD002803D0BDE81040FEF734BE10BDC3
:101BF00000440040DC110020FEE770470907090E91
:101C0000002806DA00F00F0000F1E02080F8141D33
:101C1000704700F1E02080F800147047704770476B
:101C2000FEF7DABF30B58FB028216846FEF793FA89
:101C300014210AA8FEF78FFA01210804CDE900104B
:101C40000024029402250491CDE907504FF4E010DE
:101C500009906846FFF75AF90F20CDE90A05680296
:101C6000CDE90C4002210AA80E94FFF743F80FB00B
:101C700030BD00000D48016841F00101016041687C
:101C80000B4A1140416001680A4A11400160016835
:101C900021F480210160416821F4FE0141604FF48C
:101CA0001F0181600449C0030860704700100240B2
:101CB0000000FFF8FFFFF6FE08ED00E00148FFF727
:101CC0002CBB00005C110020F0B50268164B174CCD
:101CD000174D4FF08047984205D0B84203D0A0423C
:101CE00001D0A84203D122F070064A6832439842DC
:101CF00005D0B84203D0A04201D0A84203D122F4BB
:101D00004074CA68224322F080044A692243026078
:101D10008A68C2620A688262984201D109690163D5
:101D200001214161F0BD0000002C01400004004091
:101D30000008004010B5846842EA032224F47F447E
:101D40000A432243826010BD30B403689A6822F0CF
:101D500070044A68224322F007040A6822439A600A
:101D60004A6812F00F0F1FD11211082A1CD2DFE8A7
:101D700002F01B1B1B1B0B1D23040B69D1E9022165
:101D8000006830BCFFF7D6BF0268136A146A24F0FB
:101D90000104146202689469096924F0F00444EAB9
:101DA000011191610068036230BC70470A6989685B
:101DB000006830BC00F006B80A698968006830BC69
:101DC00000F011B810B5036A046A24F0010404623B
:101DD000846924F0F00444EA021423F00A020A435E
:101DE0008461026210BD10B5036A23F01003036220
:101DF0008369046A23F4704343EA023224F0A003A7
:101E000043EA01118261016210BD10B5406A0021F0
:101E1000C185C184FFF7BCFB10BD70B5446A206862
:101E2000406994F83910C0F3C0100025212904D16D
:101E300018B1E584204600F046F82068406994F81F
:101E40003A10C0F38010222904D118B1E58520464C
:101E500000F02BF8E06B40F01000E0632046FFF745
:101E600097FB70BD10B50146406A0968096889068C
:101E700013D40021C1850168CA6822F48072CA6047
:101E800001684A6922F001024A6101684A6922F048
:101E900040024A61202180F83A10FFF775FD10BD1D
:101EA00010B5406AFFF7A8FD10BD0168CA6822F4AA
:101EB0009072CA6001684A6922F001024A612021D9
:101EC00080F83A1070470168CA6822F0C002CA6000
:101ED000202180F83910704710B590F83A10222967
:101EE00001D0022010BD8168B1F5805F11D0016979
:101EF000002901681FD0496801F07F03816A4A1CEC
:101F000082620B70C18D491E0904090CC18518D06D
:101F10002BE00269816A002A0268526805D0D2B2B9
:101F20000A80816A491C8162ECE7C2F308020A80D8
:101F3000816A891CF7E74A68816A4B1C83620A70D0
:101F4000E0E70168CA6822F02002CA600168CA6836
:101F500022F48072CA6001684A6922F001024A6173
:101F6000202180F83A10FFF70FFD002010BD00007F
:101F70002DE9F041044600680169E26821F440510E
:101F8000114301612169A068084361690843216820
:101F9000CA6841F20C639A430243CA6020684169EF
:101FA000A26921F44071114341614C4920686425C4
:101FB000322688423CD1FEF763FF00EBC00101EB03
:101FC000001061688900B0FBF1F7FEF759FF00EBE4
:101FD000C00101EB00106168B0468900B0FBF1F070
:101FE000B0FBF5F06FF01801484307EB800106EBFA
:101FF0000110B0FBF5F000F0F006FEF741FF00EB3A
:10200000C00101EB001061688900B0FBF1F0B0FB8A
:10201000F5F006EB0016FEF733FF00EBC00101EB15
:10202000001061688900B0FBF1F7FEF729FF3BE083
:10203000FEF716FF00EBC00101EB0010616889009C
:10204000B0FBF1F7FEF70CFF00EBC00101EB001055
:102050006168B0468900B0FBF1F0B0FBF5F06FF0BD
:102060001801484307EB800106EB0110B0FBF5F0C7
:1020700000F0F006FEF7F4FE00EBC00101EB0010EB
:1020800061688900B0FBF1F0B0FBF5F006EB0016DB
:10209000FEF7E6FE00EBC00101EB0010616889006D
:1020A000B0FBF1F7FEF7DCFE00EBC00101EB001026
:1020B00061688900B0FBF1F0B0FBF5F06FF018013A
:1020C000484307EB800108EB0110B0FBF5F02168F5
:1020D00000F00F0030448860BDE8F0810038014016
:1020E00090F83910212901D0022070478168B1F59C
:1020F000805F016A0BD04A1C026202680978516055
:10210000C18C491E0904090CC1840ED017E009884E
:102110000268C1F30801516001690029016A02D017
:10212000491C0162ECE7891CFBE70168CA6822F0E0
:102130008002CA600068C16841F04001C1600020AF
:1021400070472DE9F041984617460E460446069D15
:102150001DE0681C1BD02DB1FEF738FDA0EB080078
:10216000A84214D92068C16821F4D071C1602068E8
:10217000416921F001014161202084F8390084F88F
:102180003A00002084F838000320BDE8F081206880
:10219000006836EA000004D00020B842D9D0002000
:1021A000F3E70120F9E7000010B50449044800F006
:1021B00010F8BDE810400248FFF71CBA8400002068
:1021C0009C1100200148FFF715BA0000DC11002027
:1021D000FEE738B5054600680C460168C943C906E4
:1021E00016D40168406800902846FFF7A5F9686B8F
:1021F000006840682146C0F58060C4F810040120E2
:102200008202C4F818042846BDE83840FFF746BBF0
:1022100038BD00000FB4054B10B503A9044A02985D
:1022200000F058F810BC5DF814FB0000FD27000812
:10223000280000200FB4084B10B504A902AA039887
:1022400000F048F8044602A9002000F0E4F9204616
:1022500010BC5DF814FB00001726000802E008C857
:10226000121F08C1002AFAD170477047002001E010
:1022700001C1121F002AFBD1704700000D4800F079
:102280009BFA4FF480610C4800F0A2FA00250B4C39
:102290005FF0020600F038FA00F00AFA2068012820
:1022A000F8D1074800F0BCF906A0FFF7B3FFC4E976
:1022B0000056EFE784000020F0080020080000200E
:1022C000A004002064657669636542656E67696E87
:1022D0003A323B002DE9FF4F8BB088460546002679
:1022E00006E025280BD0DDE90D1290476D1C761C09
:1022F00028780028F5D10FB03046BDE8F08F0024D3
:10230000A146A2460122AE4900E0044315F8013F70
:10231000203B02FA03F00842F7D128782A2810D08F
:102320006FF02F022878A0F13001092915D809EBA8
:10233000890102EB410144F0020400EB01096D1C2C
:10234000F0E758F8041B5FEA010903D544F4005490
:10235000C9F1000944F002046D1C28782E2817D119
:1023600015F8010F44F004042A280ED06FF02F0254
:102370002878A0F1300109290AD80AEB8A0102EB7A
:10238000410100EB010A6D1CF2E758F804AB6D1C2B
:1023900028786C280FD006DC4C2817D068280DD080
:1023A0006A2814D104E0742810D07A280FD10DE0E7
:1023B00044F400140AE044F4801401E044F44014AE
:1023C0006978814202D104F580146D1C6D1C287857
:1023D000692865D006DC00288DD0632827D06428C2
:1023E00006D15DE06E2808D073282AD0752877D0F2
:1023F000DDE90D129047761CE0E0C4F3025002289C
:1024000009D003280DD0D8F8001004280DD00E6094
:1024100008F10408D2E0D8F80010F217C1E9006210
:10242000F6E7D8F800100E80F2E70E70F0E718F823
:10243000041B8DF8001000208DF80100EB460120F0
:1024400003E058F804BB4FF0FF3061074FF000077E
:1024500001D40AE07F1C57450DDA8742FADB1BF8EE
:1024600007100029F6D106E07F1C8742FCDB1BF831
:1024700007100029F8D1DDE90D23A9EB07008146FB
:10248000214600F0B1F83044C61904E0DDE90D1230
:102490001BF8010B90477F1EF8D22146484688E082
:1024A00058F8040BC4F302514FF00A0B032900D172
:1024B00000B2042900D140B2002802DA40422D21A6
:1024C00002E0210505D52B218DF82410012104E01F
:1024D00006E0E10710D02021F6E708AF089113E0ED
:1024E00058F8040BC4F302514FF00A0B032900D132
:1024F00080B2042900D1C0B20021EEE75946FDF7B1
:1025000079FF303107F8011D0028F7D1ADEB070046
:1025100000F1200B600702D524F4803401E04FF075
:10252000010ADA4502DDAAEB0B0000E0002082463A
:1025300000EB0B0108980144A9EB01000A90E003AD
:1025400006D4DDE90D2321460A9800F04DF8064433
:102550004FF0000908E009A911F80900DDE90D12A2
:10256000904709F10109761C08998945F3DBE003DE
:102570000CD5DDE90D2321460A9800F035F8064414
:1025800004E0DDE90D1230209047761CBAF100011D
:10259000AAF1010AF5DC05E0DDE90D1217F8010BDF
:1025A0009047761CBBF10001ABF1010BF4DC0A98FB
:1025B0002146DDE90D2300F005F806446D1C97E681
:1025C000092801002DE9F041044600251E46174662
:1025D000880404D405E039462020B0476D1C641EF1
:1025E000F9D52846BDE8F0812DE9F04104460025E3
:1025F0001E469046C80301D5302700E020278804F6
:1026000004D505E041463846B0476D1C641EF9D537
:102610002846BDE8F0810A68531C0B6010707047B3
:1026200010B59CB00446642103A8FDF794FD642115
:1026300003A8FDF790FDD4F8380404F58262D4F8BD
:102640004C148DE8070011A103A8D4F83434D4F851
:102650002424FFF7EFFD014603A800F0B1FB4FF47F
:102660007A742046FEF7C2F9322103A8FDF773FD04
:102670000BA103A8FFF7DEFD014603A800F0A0FBB5
:102680002046FEF7B3F91CB010BD0000626C653A3D
:1026900025643B25643B25643B25643B25733B0057
:1026A00031646576696365426567696E00000000A4
:1026B00070B5134CD4F8041400291FDD114D28689F
:1026C00003281BD1D4F808040844C4F808042046A1
:1026D00000F07EFBD4F80834D4F824140222002041
:1026E0008B4202D12A60C4F80804D4F808348B4223
:1026F00002DD2A60C4F80804C4F8040470BD0000B8
:102700000C0D0020100000202DE9F041174CD4F8EA
:102710000414002927DD164D6868022823D1D4F857
:1027200008040844C4F80804204600F049FBD4F823
:102730002414D4F8080401270026884205D10DA0EE
:10274000FFF768FDC4F808646F60D4F82414D4F867
:102750000804884205DD0BA0FFF75CFDC4F808649F
:102760006F60C4F80464BDE8F0810000A00400209C
:102770000800002064657669636542656E67696E6E
:102780003A333B007265764572726F723A333B00A2
:102790000A2290FBF2F190FBF2F302FB13020548D0
:1027A000D0F83404884201D0904201D10120704712
:1027B00000207047A004002010B504464FF40061CB
:1027C000FDF7C9FC0020C4F80C04C4F8140410BDC3
:1027D00010B50446D0F80C0410B12046FFF7ECFF0A
:1027E00040F20140C4F80C040020C4F80804C4F806
:1027F0000404C4F81004C4F8140410BD13B5FF2376
:10280000012269460248FFF7F8F801201CBD0000CC
:102810009C11002070B50446D0F814040E46002523
:10282000C0B1FEF7D3F9D4F81414401A642811D9B2
:102830004FF480613046FDF78EFC21463046D4F8D7
:102840001024FDF76FFC0020D4F81054C4F81004D5
:10285000C4F81404284670BD10B54FF480620849CE
:102860000848FFF71BF807480068C16841F01001ED
:10287000C160BDE81040012203490448FFF75AB87F
:10288000840000209C11002000000020DC110020AA
:1028900070B50446D0F814040D4618B9FEF796F941
:1028A000C4F81404D4F810042554D4F81004401CBF
:1028B000C4F8100470BD8A68002A10D0CB8AD054A6
:1028C000C88A401C82B2CA82C889824201D30022CF
:1028D000CA824A8B824203D2488B401C488370478D
:1028E000C88A0883704700002DE9FE4F604D2868B4
:1028F00002287DD15FA16048FDF738FC5E4C0127BE
:1029000004F5896904F2244A002604F5826800B3BC
:1029100004F24C41C4F80864A1F11402CDE900218D
:102920004B46CDF80880524654A12046FDF730FCB6
:10293000D4F84C04FFF72CFF012870D1414655A074
:102940006F60FFF767FC57A0D4F82414FFF762FC10
:1029500048E058A14848FDF709FC48B158A0FFF7E6
:1029600059FC6868002875D00320C5E9000671E0AD
:1029700057A14148FDF7FAFB48B1424657A13E48EE
:10298000C4F80864FDF704FC414642A02DE057A1BD
:102990003948FDF7EBFB68B1524642A13648FDF7D6
:1029A000F7FB5548D4F82414FFF712FF3DA0D4F8E4
:1029B00024141AE051A13048FDF7D8FB40B1524A27
:1029C00052A115462C48FDF7E3FB294653A00CE025
:1029D00056A12948FDF7CAFB58B14A4655A12648D9
:1029E000FDF7D6FB53A0D4F84814FFF713FC31E0F1
:1029F00036E053A12048FDF7B9FBA0B16A4653A1C8
:102A00001D48FDF7C5FB694655A0FFF703FC59A11A
:102A10006846FDF7ABFB18B1C4F838641AE018E05B
:102A2000C4F8387416E055A11348FDF79FFB88B130
:102A30006A4654A110480096FDF7AAFB009954A0DD
:102A4000C4F84C14FFF7E6FB0098FFF7A1FE01283D
:102A500008D06E6064210848FDF77DFBC4F804646B
:102A6000BDE8FE8F4EA06F60FFF7D4FBF2E70000D9
:102A700010000020626C65000C0D0020626C653A4D
:102A800025643B25643B25643B25643B255B5E3B1D
:102A90005D00000066696C654E616D653A25733BAB
:102AA0000000000066696C6553697A653A25643BED
:102AB00000000000646576696365426567696E00C1
:102AC00064657669636542656E67696E3A313B009D
:102AD00066696C654E616D650000000066696C6535
:102AE0004E616D653A255B5E3B5D000066696C6515
:102AF00053697A6500000000F008002066696C6583
:102B000054797065000000003411002066696C651E
:102B1000547970653A255B5E3B5D000066696C65C3
:102B2000547970653A25733B0000000066696C6556
:102B30004E756D0066696C654E756D3A25643B0097
:102B400066696C65456E63727970740066696C6560
:102B5000456E63727970743A255B5E3B5D000000E0
:102B600066696C65456E6372797074203D202573CB
:102B70000D0A000066616C736500000046696C65B3
:102B80004F626A0046696C654F626A3A25643B0091
:102B900046696C654F626A3D25640D0A00000000BD
:102BA00069732077696C6C2072657620646174614A
:102BB0000D0A00002DE9FE433F4F404C796804F5B3
:102BC000826804F58565012918D0022914D13CA139
:102BD0002046FDF7CBFA00280ED0D4F83804D4F8FC
:102BE0000824D4F84C148DE807002B46414636A043
:102BF000D4F82424FFF70EFBBDE8FE8337A12F484D
:102C0000FDF7B4FA002620B1424637A1C4F80864A3
:102C100016E039A12948FDF7A9FA50B1394A3AA17D
:102C20002648FDF7B5FA3C48D4F82414FFF7D0FD48
:102C300039E03AA12148FDF799FA18B12A463AA19C
:102C40001E4808E03CA11D48FDF790FA30B12D4A1E
:102C50003BA110321948FDF79BFA24E03BA117482D
:102C6000FDF784FA012578B16A463BA11348FDF7C8
:102C70008FFA3EA16846FDF779FA10B1C4F83864BE
:102C800011E0C4F838540EE03AA10C48FDF76EFA92
:102C900048B16A4639A109480096FDF779FA0098CB
:102CA000C4F84C043D60C4F8046403B06421BDE87A
:102CB000F0430248FDF74FBA08000020A0040020AE
:102CC00072656164616C6C0025732C25642C25731E
:102CD0002C25642C25642C25640D0A0066696C651E
:102CE0004E616D650000000066696C654E616D6542
:102CF0003A255B5E3B5D000066696C6553697A65E9
:102D000000000000C408002066696C6553697A659C
:102D10003A25643B000000008400002066696C6571
:102D2000547970650000000066696C6554797065BF
:102D30003A255B5E3B5D000066696C654E756D0013
:102D400066696C654E756D3A25643B0066696C6515
:102D5000456E63727970740066696C65456E637266
:102D60007970743A255B5E3B5D00000066616C73B0
:102D70006500000046696C654F626A0046696C65D3
:102D80004F626A3A25643B00FDF72EFFFEF74AFFCB
:102D9000FEF7B0FEFEF7C4FEFEF78EFEFEF7F4FE71
:102DA000FEF70EFFFFF758FD0448FEF7A9FAFFF7FC
:102DB00065FA6420FDF71AFEFBE700005C110020B5
:102DC0008AB2014610230148FEF717BEDC1100202D
:102DD0008AB20146FF230148FEF70FBE9C11002076
:102DE00000000000000000000102030406070809BB
:102DF0000000000001020304DDDDDDDDDCBBBBDD26
:102E0000DDDDDDDDDDDDDDDD98888888888888888A
:102E100077777777778888888555555666666666AA
:102E20006666666666688888833333322222222289
:102E3000222222222228888D582E000800000020FD
:102E40002C0000005C220008842E00082C000020CA
:102E50007C1C00006C220008000000000000000044
:102E6000000000000100000002000000000000005F
:102E700001000000100000000000000000A24A0451
:042E8000000000004E
:04000005080000ED02
:00000001FF
